{
  "contractName": "EthTop",
  "abi": [
    {
      "constant": true,
      "inputs": [
        {
          "name": "",
          "type": "uint256"
        }
      ],
      "name": "posts",
      "outputs": [
        {
          "name": "text",
          "type": "string"
        },
        {
          "name": "id",
          "type": "uint256"
        },
        {
          "name": "price",
          "type": "uint256"
        },
        {
          "name": "timestamp",
          "type": "uint256"
        },
        {
          "name": "author",
          "type": "address"
        }
      ],
      "payable": false,
      "stateMutability": "view",
      "type": "function",
      "signature": "0x0b1e7f83"
    },
    {
      "inputs": [],
      "payable": false,
      "stateMutability": "nonpayable",
      "type": "constructor",
      "signature": "constructor"
    },
    {
      "anonymous": false,
      "inputs": [
        {
          "indexed": false,
          "name": "_text",
          "type": "string"
        },
        {
          "indexed": true,
          "name": "_id",
          "type": "uint256"
        },
        {
          "indexed": false,
          "name": "_price",
          "type": "uint256"
        },
        {
          "indexed": true,
          "name": "_author",
          "type": "address"
        }
      ],
      "name": "PostCreated",
      "type": "event",
      "signature": "0x81d3adda78501c6f82b6407cd5230e45ed8a4030b65f4a2f14118d5bd338bf21"
    },
    {
      "constant": false,
      "inputs": [
        {
          "name": "_text",
          "type": "string"
        }
      ],
      "name": "createPost",
      "outputs": [
        {
          "name": "",
          "type": "uint256"
        }
      ],
      "payable": true,
      "stateMutability": "payable",
      "type": "function",
      "signature": "0xc7303c61"
    },
    {
      "constant": true,
      "inputs": [],
      "name": "getTopTenIds",
      "outputs": [
        {
          "name": "",
          "type": "uint256[]"
        }
      ],
      "payable": false,
      "stateMutability": "view",
      "type": "function",
      "signature": "0xc9494bf1"
    },
    {
      "constant": true,
      "inputs": [],
      "name": "getAllPosts",
      "outputs": [
        {
          "name": "",
          "type": "uint256[]"
        },
        {
          "name": "",
          "type": "uint256[]"
        },
        {
          "name": "",
          "type": "uint256[]"
        },
        {
          "name": "",
          "type": "address[]"
        }
      ],
      "payable": false,
      "stateMutability": "view",
      "type": "function",
      "signature": "0x30561100"
    },
    {
      "constant": true,
      "inputs": [],
      "name": "getAmount",
      "outputs": [
        {
          "name": "",
          "type": "uint256"
        }
      ],
      "payable": false,
      "stateMutability": "view",
      "type": "function",
      "signature": "0xd321fe29"
    },
    {
      "constant": false,
      "inputs": [],
      "name": "widthdraw",
      "outputs": [],
      "payable": false,
      "stateMutability": "nonpayable",
      "type": "function",
      "signature": "0x52b50a2a"
    }
  ],
  "bytecode": "0x608060405234801561001057600080fd5b50336000806101000a81548173ffffffffffffffffffffffffffffffffffffffff021916908373ffffffffffffffffffffffffffffffffffffffff160217905550600060018190555061100f806100686000396000f3fe608060405260043610610078576000357c0100000000000000000000000000000000000000000000000000000000900463ffffffff1680630b1e7f831461007d578063305611001461017957806352b50a2a146102bd578063c7303c61146102d4578063c9494bf1146103a3578063d321fe291461040f575b600080fd5b34801561008957600080fd5b506100b6600480360360208110156100a057600080fd5b810190808035906020019092919050505061043a565b60405180806020018681526020018581526020018481526020018373ffffffffffffffffffffffffffffffffffffffff1673ffffffffffffffffffffffffffffffffffffffff168152602001828103825287818151815260200191508051906020019080838360005b8381101561013a57808201518184015260208101905061011f565b50505050905090810190601f1680156101675780820380516001836020036101000a031916815260200191505b50965050505050505060405180910390f35b34801561018557600080fd5b5061018e610537565b6040518080602001806020018060200180602001858103855289818151815260200191508051906020019060200280838360005b838110156101dd5780820151818401526020810190506101c2565b50505050905001858103845288818151815260200191508051906020019060200280838360005b8381101561021f578082015181840152602081019050610204565b50505050905001858103835287818151815260200191508051906020019060200280838360005b83811015610261578082015181840152602081019050610246565b50505050905001858103825286818151815260200191508051906020019060200280838360005b838110156102a3578082015181840152602081019050610288565b505050509050019850505050505050505060405180910390f35b3480156102c957600080fd5b506102d261089a565b005b61038d600480360360208110156102ea57600080fd5b810190808035906020019064010000000081111561030757600080fd5b82018360208201111561031957600080fd5b8035906020019184600183028401116401000000008311171561033b57600080fd5b91908080601f016020809104026020016040519081016040528093929190818152602001838380828437600081840152601f19601f8201169050808301925050505050505091929192905050506109cf565b6040518082815260200191505060405180910390f35b3480156103af57600080fd5b506103b8610bc1565b6040518080602001828103825283818151815260200191508051906020019060200280838360005b838110156103fb5780820151818401526020810190506103e0565b505050509050019250505060405180910390f35b34801561041b57600080fd5b50610424610c80565b6040518082815260200191505060405180910390f35b60028181548110151561044957fe5b9060005260206000209060050201600091509050806000018054600181600116156101000203166002900480601f0160208091040260200160405190810160405280929190818152602001828054600181600116156101000203166002900480156104f55780601f106104ca576101008083540402835291602001916104f5565b820191906000526020600020905b8154815290600101906020018083116104d857829003601f168201915b5050505050908060010154908060020154908060030154908060040160009054906101000a900473ffffffffffffffffffffffffffffffffffffffff16905085565b6060806060806000600280549050905060608160405190808252806020026020018201604052801561057d57816020015b60608152602001906001900390816105685790505b5090506060826040519080825280602002602001820160405280156105b15781602001602082028038833980820191505090505b5090506060836040519080825280602002602001820160405280156105e55781602001602082028038833980820191505090505b5090506060846040519080825280602002602001820160405280156106195781602001602082028038833980820191505090505b50905060608560405190808252806020026020018201604052801561064d5781602001602082028038833980820191505090505b50905060008090505b868110156108815760028181548110151561066d57fe5b90600052602060002090600502016000018054600181600116156101000203166002900480601f0160208091040260200160405190810160405280929190818152602001828054600181600116156101000203166002900480156107125780601f106106e757610100808354040283529160200191610712565b820191906000526020600020905b8154815290600101906020018083116106f557829003601f168201915b5050505050868281518110151561072557fe5b9060200190602002018190525060028181548110151561074157fe5b906000526020600020906005020160010154858281518110151561076157fe5b906020019060200201818152505060028181548110151561077e57fe5b906000526020600020906005020160020154848281518110151561079e57fe5b90602001906020020181815250506002818154811015156107bb57fe5b90600052602060002090600502016003015483828151811015156107db57fe5b90602001906020020181815250506002818154811015156107f857fe5b906000526020600020906005020160040160009054906101000a900473ffffffffffffffffffffffffffffffffffffffff16828281518110151561083857fe5b9060200190602002019073ffffffffffffffffffffffffffffffffffffffff16908173ffffffffffffffffffffffffffffffffffffffff16815250508080600101915050610656565b5083838383995099509950995050505050505090919293565b6000809054906101000a900473ffffffffffffffffffffffffffffffffffffffff1673ffffffffffffffffffffffffffffffffffffffff163373ffffffffffffffffffffffffffffffffffffffff16141515610984576040517f08c379a000000000000000000000000000000000000000000000000000000000815260040180806020018281038252602f8152602001807f4f6e6c79206f776e65722063616e207769746864726177206d6f6e657920667281526020017f6f6d2074686520636f6e7472616374000000000000000000000000000000000081525060400191505060405180910390fd5b3373ffffffffffffffffffffffffffffffffffffffff166108fc6001549081150290604051600060405180830381858888f193505050501580156109cc573d6000803e3d6000fd5b50565b6000806001600260a060405190810160405280868152602001600081526020013481526020014281526020013373ffffffffffffffffffffffffffffffffffffffff16815250908060018154018082558091505090600182039060005260206000209060050201600090919290919091506000820151816000019080519060200190610a5c929190610ef8565b5060208201518160010155604082015181600201556060820151816003015560808201518160040160006101000a81548173ffffffffffffffffffffffffffffffffffffffff021916908373ffffffffffffffffffffffffffffffffffffffff160217905550505003905080600282815481101515610ad757fe5b906000526020600020906005020160010181905550346001600082825401925050819055503373ffffffffffffffffffffffffffffffffffffffff16817f81d3adda78501c6f82b6407cd5230e45ed8a4030b65f4a2f14118d5bd338bf2185346040518080602001838152602001828103825284818151815260200191508051906020019080838360005b83811015610b7d578082015181840152602081019050610b62565b50505050905090810190601f168015610baa5780820380516001836020036101000a031916815260200191505b50935050505060405180910390a380915050919050565b606080610bcc610c8a565b90506000600a825110610be057600a610be3565b81515b9050606081604051908082528060200260200182016040528015610c165781602001602082028038833980820191505090505b50905060008090505b82811015610c76578351811015610c69578381815181101515610c3e57fe5b90602001906020020151602001518282815181101515610c5a57fe5b90602001906020020181815250505b8080600101915050610c1f565b5080935050505090565b6000600154905090565b6060806002805480602002602001604051908101604052809291908181526020016000905b82821015610df8578382906000526020600020906005020160a06040519081016040529081600082018054600181600116156101000203166002900480601f016020809104026020016040519081016040528092919081815260200182805460018160011615610100020316600290048015610d6c5780601f10610d4157610100808354040283529160200191610d6c565b820191906000526020600020905b815481529060010190602001808311610d4f57829003601f168201915b505050505081526020016001820154815260200160028201548152602001600382015481526020016004820160009054906101000a900473ffffffffffffffffffffffffffffffffffffffff1673ffffffffffffffffffffffffffffffffffffffff1673ffffffffffffffffffffffffffffffffffffffff168152505081526020019060010190610caf565b505050509050610e06610f78565b6000600190505b8015610eef57600190506000600190505b8351811015610ee9578381815181101515610e3557fe5b90602001906020020151604001518460018303815181101515610e5457fe5b90602001906020020151604001511015610edc578360018203815181101515610e7957fe5b9060200190602002015192508381815181101515610e9357fe5b906020019060200201518460018303815181101515610eae57fe5b90602001906020020181905250828482815181101515610eca57fe5b90602001906020020181905250600091505b8080600101915050610e1e565b50610e0d565b82935050505090565b828054600181600116156101000203166002900490600052602060002090601f016020900481019282601f10610f3957805160ff1916838001178555610f67565b82800160010185558215610f67579182015b82811115610f66578251825591602001919060010190610f4b565b5b509050610f749190610fbe565b5090565b60a06040519081016040528060608152602001600081526020016000815260200160008152602001600073ffffffffffffffffffffffffffffffffffffffff1681525090565b610fe091905b80821115610fdc576000816000905550600101610fc4565b5090565b9056fea165627a7a723058206ee10c300c71c873d1bf6f852d498db06a6cd659dd1490e9cfe6c028c0c1cd2b0029",
  "source": "pragma solidity >=0.4.25 <0.6.0;\n// This is just a simple example of a coin-like contract.\n// It is not standards compatible and cannot be expected to talk to other\n// coin/token contracts. If you want to create a standards-compliant\n// token, see: https://github.com/ConsenSys/Tokens. Cheers!\n\ncontract EthTop {\n\taddress owner;\n\tuint amount; // деньги на контракте\n\n\t// описывает один пост\n\tstruct Post {\n\t\tstring text; // содержание поста\n\t\tuint id; //  уникальный id ( тупо индекс будет )\n\t\tuint price; // сколько бабок заплачено - по нему сортируем\n\t\tuint timestamp; // когда был создан пост\n\t\taddress author; // да\n\t}\n\n  \t// массив для хранения постов\n\tPost[] public posts;\n\n\tconstructor() public {\n\t\towner = msg.sender;\n\t\tamount = 0;\n\t}\n\n\t// пост создан\n\tevent PostCreated(string _text, uint indexed _id, uint _price, address indexed _author);\n\n\tfunction createPost(string memory _text) public payable returns (uint){\n\t\tuint id = posts.push(\n\t\t\tPost(\n\t\t\t\t_text,\n\t\t\t\t0,\n\t\t\t\tmsg.value,\n\t\t\t\tnow,\n\t\t\t\tmsg.sender\n\t\t\t)\n\t\t) - 1;\n\t\tposts[id].id = id;\n\t\tamount += msg.value;\n\t\temit PostCreated(_text, id, msg.value, msg.sender);\n\t\treturn id;\n\t}\n\n\tfunction sortByPrice() private view returns (Post[] memory) {\n\t\tPost[] memory sortedPosts = posts;\n\t\tPost memory tmpPost;\n\t\tbool flag = true;\n\t\twhile(flag) {\n\t\t\tflag = true;\n\t\t\tfor( uint i = 1; i < sortedPosts.length; i++ ) {\n\t\t\t\tif( sortedPosts[i-1].price < sortedPosts[i].price ) {\n\t\t\t\t\ttmpPost = sortedPosts[i-1];\n\t\t\t\t\tsortedPosts[i-1] = sortedPosts[i];\n\t\t\t\t\tsortedPosts[i] = tmpPost;\n\t\t\t\t\tflag = false;\n\t\t\t\t}\n\t\t\t}\n\t\t}\n\t\treturn sortedPosts;\n\t}\n\n\t/*function getTopTenPosts() external view returns (Post[] memory) {\n\t\tPost[] memory sortedPosts = sortByPrice();\n\t\tuint size = sortedPosts.length < 10 ? sortedPosts.length : 10;\n\t\tPost[] memory topTen = new Post[] (size);\n\n\t\tfor( uint i = 0; i < size; i++) {\n\t\t\ttopTen[i] = sortedPosts[i];\n\t\t}\n\t\treturn topTen;\n\t}*/\n\n\tfunction getTopTenIds() external view returns ( uint[] memory ) {\n\t\tPost[] memory sortedPosts = sortByPrice();\n\t\tuint size = sortedPosts.length < 10 ? sortedPosts.length : 10;\n\t\tuint[] memory topTen = new uint[] (size);\n\n\t\tfor( uint i = 0; i < size; i++) {\n\t\t\tif( i < sortedPosts.length ) {\n\t\t\t\ttopTen[i] = sortedPosts[i].id;\n\t\t\t}\n\t\t}\n\t\treturn topTen;\n\t}\n\n\tfunction getAllPosts()\n\t\texternal\n\t\tview\n\t\treturns(/*string[] memory, */uint[] memory, uint[] memory, uint[] memory, address[] memory)\n\t{\n\t\tuint size = posts.length;\n\t\tstring[] memory texts = new string[](size);\n\t\tuint[] memory ids = new uint[](size);\n\t\tuint[] memory prices = new uint[](size);\n\t\tuint[] memory timestamps = new uint[](size);\n\t\taddress[] memory authors = new address[](size);\n\n\t\tfor( uint i = 0; i < size; i++ ) {\n\t\t\ttexts[i] = posts[i].text;\n\t\t\tids[i] = posts[i].id;\n\t\t\tprices[i] = posts[i].price;\n\t\t\ttimestamps[i] = posts[i].timestamp;\n\t\t\tauthors[i] = posts[i].author;\n\t\t}\n\n\t\treturn (/*texts, */ids, prices, timestamps, authors);\n\t}\n\n\tfunction getAmount() public view returns (uint) {\n\t\treturn amount;\n\t}\n\n\tfunction widthdraw() public {\n\t\trequire(msg.sender == owner, \"Only owner can withdraw money from the contract\");\n\t\tmsg.sender.transfer(amount);\n\t}\n}\n",
  "sourcePath": "/Users/pavelbelakov/Documents/GitHub/eth4top/smart-contract/contracts/EthTop.sol",
  "compiler": {
    "name": "solc",
    "version": "0.5.0+commit.1d4f565a.Emscripten.clang"
  },
  "schemaVersion": "3.0.2",
  "updatedAt": "2019-05-23T15:37:21.298Z",
  "devdoc": {
    "methods": {}
  },
  "userdoc": {
    "methods": {}
  }
}