{
  "contractName": "EthTop",
  "abi": [
    {
      "constant": true,
      "inputs": [
        {
          "name": "",
          "type": "uint256"
        }
      ],
      "name": "posts",
      "outputs": [
        {
          "name": "text",
          "type": "string"
        },
        {
          "name": "id",
          "type": "uint256"
        },
        {
          "name": "price",
          "type": "uint256"
        },
        {
          "name": "timestamp",
          "type": "uint256"
        },
        {
          "name": "author",
          "type": "address"
        }
      ],
      "payable": false,
      "stateMutability": "view",
      "type": "function",
      "signature": "0x0b1e7f83"
    },
    {
      "inputs": [],
      "payable": false,
      "stateMutability": "nonpayable",
      "type": "constructor",
      "signature": "constructor"
    },
    {
      "anonymous": false,
      "inputs": [
        {
          "indexed": false,
          "name": "_text",
          "type": "string"
        },
        {
          "indexed": true,
          "name": "_id",
          "type": "uint256"
        },
        {
          "indexed": false,
          "name": "_price",
          "type": "uint256"
        },
        {
          "indexed": true,
          "name": "_author",
          "type": "address"
        }
      ],
      "name": "PostCreated",
      "type": "event",
      "signature": "0x81d3adda78501c6f82b6407cd5230e45ed8a4030b65f4a2f14118d5bd338bf21"
    },
    {
      "constant": false,
      "inputs": [
        {
          "name": "_text",
          "type": "string"
        }
      ],
      "name": "createPost",
      "outputs": [
        {
          "name": "",
          "type": "uint256"
        }
      ],
      "payable": true,
      "stateMutability": "payable",
      "type": "function",
      "signature": "0xc7303c61"
    },
    {
      "constant": true,
      "inputs": [],
      "name": "getTopTenIds",
      "outputs": [
        {
          "name": "",
          "type": "uint256[]"
        }
      ],
      "payable": false,
      "stateMutability": "view",
      "type": "function",
      "signature": "0xc9494bf1"
    },
    {
      "constant": true,
      "inputs": [],
      "name": "getAllPosts",
      "outputs": [
        {
          "name": "",
          "type": "uint256[]"
        },
        {
          "name": "",
          "type": "uint256[]"
        },
        {
          "name": "",
          "type": "uint256[]"
        },
        {
          "name": "",
          "type": "address[]"
        }
      ],
      "payable": false,
      "stateMutability": "view",
      "type": "function",
      "signature": "0x30561100"
    },
    {
      "constant": true,
      "inputs": [
        {
          "name": "page",
          "type": "uint256"
        }
      ],
      "name": "getTenPosts",
      "outputs": [
        {
          "name": "ids",
          "type": "uint256[3]"
        },
        {
          "name": "texts",
          "type": "string[3]"
        },
        {
          "name": "prices",
          "type": "uint256[3]"
        },
        {
          "name": "timestamps",
          "type": "uint256[3]"
        },
        {
          "name": "authors",
          "type": "address[3]"
        }
      ],
      "payable": false,
      "stateMutability": "view",
      "type": "function",
      "signature": "0x3d31371d"
    },
    {
      "constant": true,
      "inputs": [],
      "name": "getAmount",
      "outputs": [
        {
          "name": "",
          "type": "uint256"
        }
      ],
      "payable": false,
      "stateMutability": "view",
      "type": "function",
      "signature": "0xd321fe29"
    },
    {
      "constant": false,
      "inputs": [],
      "name": "widthdraw",
      "outputs": [],
      "payable": false,
      "stateMutability": "nonpayable",
      "type": "function",
      "signature": "0x52b50a2a"
    },
    {
      "constant": false,
      "inputs": [
        {
          "name": "myFriend",
          "type": "address"
        }
      ],
      "name": "widthdraw",
      "outputs": [],
      "payable": false,
      "stateMutability": "nonpayable",
      "type": "function",
      "signature": "0x8a4d6136"
    },
    {
      "constant": false,
      "inputs": [],
      "name": "deletePosts",
      "outputs": [],
      "payable": false,
      "stateMutability": "nonpayable",
      "type": "function",
      "signature": "0x662a97d4"
    }
  ],
  "bytecode": "0x608060405234801561001057600080fd5b50336000806101000a81548173ffffffffffffffffffffffffffffffffffffffff021916908373ffffffffffffffffffffffffffffffffffffffff160217905550600060018190555061184c806100686000396000f3fe608060405260043610610099576000357c0100000000000000000000000000000000000000000000000000000000900463ffffffff1680630b1e7f831461009e57806330561100146100df5780633d31371d1461010d57806352b50a2a1461014e578063662a97d4146101655780638a4d61361461017c578063c7303c61146101a5578063c9494bf1146101d5578063d321fe2914610200575b600080fd5b3480156100aa57600080fd5b506100c560048036036100c091908101906111e3565b61022b565b6040516100d69594939291906115b3565b60405180910390f35b3480156100eb57600080fd5b506100f4610328565b6040516101049493929190611522565b60405180910390f35b34801561011957600080fd5b50610134600480360361012f91908101906111e3565b61068b565b6040516101459594939291906114a4565b60405180910390f35b34801561015a57600080fd5b50610163610841565b005b34801561017157600080fd5b5061017a61091d565b005b34801561018857600080fd5b506101a3600480360361019e9190810190611179565b61092d565b005b6101bf60048036036101ba91908101906111a2565b610a0a565b6040516101cc919061162d565b60405180910390f35b3480156101e157600080fd5b506101ea610b91565b6040516101f79190611500565b60405180910390f35b34801561020c57600080fd5b50610215610c50565b604051610222919061162d565b60405180910390f35b60028181548110151561023a57fe5b9060005260206000209060050201600091509050806000018054600181600116156101000203166002900480601f0160208091040260200160405190810160405280929190818152602001828054600181600116156101000203166002900480156102e65780601f106102bb576101008083540402835291602001916102e6565b820191906000526020600020905b8154815290600101906020018083116102c957829003601f168201915b5050505050908060010154908060020154908060030154908060040160009054906101000a900473ffffffffffffffffffffffffffffffffffffffff16905085565b6060806060806000600280549050905060608160405190808252806020026020018201604052801561036e57816020015b60608152602001906001900390816103595790505b5090506060826040519080825280602002602001820160405280156103a25781602001602082028038833980820191505090505b5090506060836040519080825280602002602001820160405280156103d65781602001602082028038833980820191505090505b50905060608460405190808252806020026020018201604052801561040a5781602001602082028038833980820191505090505b50905060608560405190808252806020026020018201604052801561043e5781602001602082028038833980820191505090505b50905060008090505b868110156106725760028181548110151561045e57fe5b90600052602060002090600502016000018054600181600116156101000203166002900480601f0160208091040260200160405190810160405280929190818152602001828054600181600116156101000203166002900480156105035780601f106104d857610100808354040283529160200191610503565b820191906000526020600020905b8154815290600101906020018083116104e657829003601f168201915b5050505050868281518110151561051657fe5b9060200190602002018190525060028181548110151561053257fe5b906000526020600020906005020160010154858281518110151561055257fe5b906020019060200201818152505060028181548110151561056f57fe5b906000526020600020906005020160020154848281518110151561058f57fe5b90602001906020020181815250506002818154811015156105ac57fe5b90600052602060002090600502016003015483828151811015156105cc57fe5b90602001906020020181815250506002818154811015156105e957fe5b906000526020600020906005020160040160009054906101000a900473ffffffffffffffffffffffffffffffffffffffff16828281518110151561062957fe5b9060200190602002019073ffffffffffffffffffffffffffffffffffffffff16908173ffffffffffffffffffffffffffffffffffffffff16815250508080600101915050610447565b5083838383995099509950995050505050505090919293565b610693610ec8565b61069b610eeb565b6106a3610ec8565b6106ab610ec8565b6106b3610f13565b60606106bd610c5a565b905060008090506000600360018a030290505b600389028110156108265782518110156108115782818151811015156106f257fe5b9060200190602002015160200151888360038110151561070e57fe5b602002018181525050828181518110151561072557fe5b9060200190602002015160000151878360038110151561074157fe5b6020020181905250828181518110151561075757fe5b9060200190602002015160400151868360038110151561077357fe5b602002018181525050828181518110151561078a57fe5b906020019060200201516060015185836003811015156107a657fe5b60200201818152505082818151811015156107bd57fe5b906020019060200201516080015184836003811015156107d957fe5b602002019073ffffffffffffffffffffffffffffffffffffffff16908173ffffffffffffffffffffffffffffffffffffffff16815250505b818060010192505080806001019150506106d0565b50868686868696509650965096509650505091939590929450565b6000809054906101000a900473ffffffffffffffffffffffffffffffffffffffff1673ffffffffffffffffffffffffffffffffffffffff163373ffffffffffffffffffffffffffffffffffffffff161415156108d2576040517f08c379a00000000000000000000000000000000000000000000000000000000081526004016108c99061160d565b60405180910390fd5b3373ffffffffffffffffffffffffffffffffffffffff166108fc6001549081150290604051600060405180830381858888f1935050505015801561091a573d6000803e3d6000fd5b50565b6002600061092b9190610f36565b565b6000809054906101000a900473ffffffffffffffffffffffffffffffffffffffff1673ffffffffffffffffffffffffffffffffffffffff163373ffffffffffffffffffffffffffffffffffffffff161415156109be576040517f08c379a00000000000000000000000000000000000000000000000000000000081526004016109b59061160d565b60405180910390fd5b8073ffffffffffffffffffffffffffffffffffffffff166108fc6001549081150290604051600060405180830381858888f19350505050158015610a06573d6000803e3d6000fd5b5050565b6000806001600260a060405190810160405280868152602001600081526020013481526020014281526020013373ffffffffffffffffffffffffffffffffffffffff16815250908060018154018082558091505090600182039060005260206000209060050201600090919290919091506000820151816000019080519060200190610a97929190610f5a565b5060208201518160010155604082015181600201556060820151816003015560808201518160040160006101000a81548173ffffffffffffffffffffffffffffffffffffffff021916908373ffffffffffffffffffffffffffffffffffffffff160217905550505003905080600282815481101515610b1257fe5b906000526020600020906005020160010181905550346001600082825401925050819055503373ffffffffffffffffffffffffffffffffffffffff16817f81d3adda78501c6f82b6407cd5230e45ed8a4030b65f4a2f14118d5bd338bf218534604051610b80929190611583565b60405180910390a380915050919050565b606080610b9c610c5a565b90506000600a825110610bb057600a610bb3565b81515b9050606081604051908082528060200260200182016040528015610be65781602001602082028038833980820191505090505b50905060008090505b82811015610c46578351811015610c39578381815181101515610c0e57fe5b90602001906020020151602001518282815181101515610c2a57fe5b90602001906020020181815250505b8080600101915050610bef565b5080935050505090565b6000600154905090565b6060806002805480602002602001604051908101604052809291908181526020016000905b82821015610dc8578382906000526020600020906005020160a06040519081016040529081600082018054600181600116156101000203166002900480601f016020809104026020016040519081016040528092919081815260200182805460018160011615610100020316600290048015610d3c5780601f10610d1157610100808354040283529160200191610d3c565b820191906000526020600020905b815481529060010190602001808311610d1f57829003601f168201915b505050505081526020016001820154815260200160028201548152602001600382015481526020016004820160009054906101000a900473ffffffffffffffffffffffffffffffffffffffff1673ffffffffffffffffffffffffffffffffffffffff1673ffffffffffffffffffffffffffffffffffffffff168152505081526020019060010190610c7f565b505050509050610dd6610fda565b6000600190505b8015610ebf57600090506000600190505b8351811015610eb9578381815181101515610e0557fe5b90602001906020020151604001518460018303815181101515610e2457fe5b90602001906020020151604001511015610eac578360018203815181101515610e4957fe5b9060200190602002015192508381815181101515610e6357fe5b906020019060200201518460018303815181101515610e7e57fe5b90602001906020020181905250828482815181101515610e9a57fe5b90602001906020020181905250600191505b8080600101915050610dee565b50610ddd565b82935050505090565b606060405190810160405280600390602082028038833980820191505090505090565b6060604051908101604052806003905b6060815260200190600190039081610efb5790505090565b606060405190810160405280600390602082028038833980820191505090505090565b5080546000825560050290600052602060002090810190610f579190611020565b50565b828054600181600116156101000203166002900490600052602060002090601f016020900481019282601f10610f9b57805160ff1916838001178555610fc9565b82800160010185558215610fc9579182015b82811115610fc8578251825591602001919060010190610fad565b5b509050610fd6919061108e565b5090565b60a06040519081016040528060608152602001600081526020016000815260200160008152602001600073ffffffffffffffffffffffffffffffffffffffff1681525090565b61108b91905b80821115611087576000808201600061103f91906110b3565b6001820160009055600282016000905560038201600090556004820160006101000a81549073ffffffffffffffffffffffffffffffffffffffff021916905550600501611026565b5090565b90565b6110b091905b808211156110ac576000816000905550600101611094565b5090565b90565b50805460018160011615610100020316600290046000825580601f106110d957506110f8565b601f0160209004906000526020600020908101906110f7919061108e565b5b50565b600061110782356117a3565b905092915050565b600082601f830112151561112257600080fd5b813561113561113082611675565b611648565b9150808252602083016020830185838301111561115157600080fd5b61115c8382846117bf565b50505092915050565b600061117182356117b5565b905092915050565b60006020828403121561118b57600080fd5b6000611199848285016110fb565b91505092915050565b6000602082840312156111b457600080fd5b600082013567ffffffffffffffff8111156111ce57600080fd5b6111da8482850161110f565b91505092915050565b6000602082840312156111f557600080fd5b600061120384828501611165565b91505092915050565b61121581611767565b82525050565b611224816116d9565b61122d826116a1565b60005b8281101561125f5761124385835161120c565b61124c82611726565b9150602085019450600181019050611230565b5050505050565b6000611271826116e4565b808452602084019350611283836116ab565b60005b828110156112b55761129986835161120c565b6112a282611733565b9150602086019550600181019050611286565b50849250505092915050565b60006112cc826116ef565b836020820285016112dc856116b8565b60005b848110156113155783830388526112f7838351611402565b925061130282611740565b91506020880197506001810190506112df565b508196508694505050505092915050565b61132f816116fa565b611338826116c2565b60005b8281101561136a5761134e858351611495565b6113578261174d565b915060208501945060018101905061133b565b5050505050565b600061137c82611705565b80845260208401935061138e836116cc565b60005b828110156113c0576113a4868351611495565b6113ad8261175a565b9150602086019550600181019050611391565b50849250505092915050565b60006113d78261171b565b8084526113eb8160208601602086016117ce565b6113f481611801565b602085010191505092915050565b600061140d82611710565b8084526114218160208601602086016117ce565b61142a81611801565b602085010191505092915050565b6000602f82527f4f6e6c79206f776e65722063616e207769746864726177206d6f6e657920667260208301527f6f6d2074686520636f6e747261637400000000000000000000000000000000006040830152606082019050919050565b61149e81611799565b82525050565b60006101a0820190506114ba6000830188611326565b81810360608301526114cc81876112c1565b90506114db6080830186611326565b6114e860e0830185611326565b6114f661014083018461121b565b9695505050505050565b6000602082019050818103600083015261151a8184611371565b905092915050565b6000608082019050818103600083015261153c8187611371565b905081810360208301526115508186611371565b905081810360408301526115648185611371565b905081810360608301526115788184611266565b905095945050505050565b6000604082019050818103600083015261159d81856113cc565b90506115ac6020830184611495565b9392505050565b600060a08201905081810360008301526115cd8188611402565b90506115dc6020830187611495565b6115e96040830186611495565b6115f66060830185611495565b611603608083018461120c565b9695505050505050565b6000602082019050818103600083015261162681611438565b9050919050565b60006020820190506116426000830184611495565b92915050565b6000604051905081810181811067ffffffffffffffff8211171561166b57600080fd5b8060405250919050565b600067ffffffffffffffff82111561168c57600080fd5b601f19601f8301169050602081019050919050565b6000819050919050565b6000602082019050919050565b6000819050919050565b6000819050919050565b6000602082019050919050565b600060039050919050565b600081519050919050565b600060039050919050565b600060039050919050565b600081519050919050565b600081519050919050565b600081519050919050565b6000602082019050919050565b6000602082019050919050565b6000602082019050919050565b6000602082019050919050565b6000602082019050919050565b600061177282611779565b9050919050565b600073ffffffffffffffffffffffffffffffffffffffff82169050919050565b6000819050919050565b60006117ae82611779565b9050919050565b6000819050919050565b82818337600083830152505050565b60005b838110156117ec5780820151818401526020810190506117d1565b838111156117fb576000848401525b50505050565b6000601f19601f830116905091905056fea265627a7a72305820352fa11e62c5151f36a4eeb946d86989c8b457739c0396c8e0bc7236f624796b6c6578706572696d656e74616cf50037",
  "source": "pragma solidity >=0.4.25 <0.6.0;\npragma experimental ABIEncoderV2;\n// This is just a simple example of a coin-like contract.\n// It is not standards compatible and cannot be expected to talk to other\n// coin/token contracts. If you want to create a standards-compliant\n// token, see: https://github.com/ConsenSys/Tokens. Cheers!\n\ncontract EthTop {\n\taddress owner;\n\tuint amount; // деньги на контракте\n\n\t// описывает один пост\n\tstruct Post {\n\t\tstring text; // содержание поста\n\t\tuint id; //  уникальный id ( тупо индекс будет )\n\t\tuint price; // сколько бабок заплачено - по нему сортируем\n\t\tuint timestamp; // когда был создан пост\n\t\taddress author; // да\n\t}\n\n  // массив для хранения постов\n\tPost[] public posts;\n\n\tconstructor() public {\n\t\towner = msg.sender;\n\t\tamount = 0;\n\t}\n\n\t// событие создания поста\n\tevent PostCreated(string _text, uint indexed _id, uint _price, address indexed _author);\n\n\tfunction createPost(string memory _text) public payable returns (uint){\n\t\tuint id = posts.push(\n\t\t\tPost(\n\t\t\t\t_text,\n\t\t\t\t0,\n\t\t\t\tmsg.value,\n\t\t\t\tnow,\n\t\t\t\tmsg.sender\n\t\t\t)\n\t\t) - 1;\n\t\tposts[id].id = id;\n\t\tamount += msg.value;\n\t\temit PostCreated(_text, id, msg.value, msg.sender);\n\t\treturn id;\n\t}\n\n\tfunction sortByPrice() private view returns (Post[] memory) {\n\t\tPost[] memory sortedPosts = posts;\n\t\tPost memory tmpPost;\n\t\tbool flag = true;\n\t\twhile(flag) {\n\t\t\tflag = false;\n\t\t\tfor( uint i = 1; i < sortedPosts.length; i++ ) {\n\t\t\t\tif( sortedPosts[i-1].price < sortedPosts[i].price ) {\n\t\t\t\t\ttmpPost = sortedPosts[i-1];\n\t\t\t\t\tsortedPosts[i-1] = sortedPosts[i];\n\t\t\t\t\tsortedPosts[i] = tmpPost;\n\t\t\t\t\tflag = true;\n\t\t\t\t}\n\t\t\t}\n\t\t}\n\t\treturn sortedPosts;\n\t}\n\n\tfunction getTopTenIds() external view returns ( uint[] memory ) {\n\t\tPost[] memory sortedPosts = sortByPrice();\n\t\tuint size = sortedPosts.length < 10 ? sortedPosts.length : 10;\n\t\tuint[] memory topTen = new uint[] (size);\n\n\t\tfor( uint i = 0; i < size; i++) {\n\t\t\tif( i < sortedPosts.length ) {\n\t\t\t\ttopTen[i] = sortedPosts[i].id;\n\t\t\t}\n\t\t}\n\t\treturn topTen;\n\t}\n\n\tfunction getAllPosts()\n\t\texternal\n\t\tview\n\t\treturns(uint[] memory, uint[] memory, uint[] memory, address[] memory)\n\t{\n\t\tuint size = posts.length;\n\t\tstring[] memory texts = new string[](size);\n\t\tuint[] memory ids = new uint[](size);\n\t\tuint[] memory prices = new uint[](size);\n\t\tuint[] memory timestamps = new uint[](size);\n\t\taddress[] memory authors = new address[](size);\n\n\t\tfor( uint i = 0; i < size; i++ ) {\n\t\t\ttexts[i] = posts[i].text;\n\t\t\tids[i] = posts[i].id;\n\t\t\tprices[i] = posts[i].price;\n\t\t\ttimestamps[i] = posts[i].timestamp;\n\t\t\tauthors[i] = posts[i].author;\n\t\t}\n\n\t\treturn (ids, prices, timestamps, authors);\n\t}\n\n\tfunction getTenPosts(uint page)\n\t\texternal\n\t\tview\n\t\treturns(\n\t\t\tuint[3] memory ids,\n\t\t\tstring[3] memory texts,\n\t\t\tuint[3] memory prices,\n\t\t\tuint[3] memory timestamps,\n\t\t\taddress[3] memory authors\n\t\t) {\n\t\t\tPost[] memory sortedPosts = sortByPrice();\n\t\t\tuint index = 0;\n\t\t\tfor( uint i = (page - 1) * 3; i < page * 3; i++) {\n\t\t\t\tif( i < sortedPosts.length ) {\n\t\t\t\t\tids[index] = sortedPosts[i].id;\n\t\t\t\t\ttexts[index] = sortedPosts[i].text;\n\t\t\t\t\tprices[index] = sortedPosts[i].price;\n\t\t\t\t\ttimestamps[index] = sortedPosts[i].timestamp;\n\t\t\t\t\tauthors[index] = sortedPosts[i].author;\n\t\t\t\t}\n\t\t\t\tindex++;\n\t\t\t}\n\t\t\treturn (ids,texts,prices,timestamps,authors);\n\t\t}\n\n\tfunction getAmount() public view returns (uint) {\n\t\treturn amount;\n\t}\n\n\tfunction widthdraw() public {\n\t\trequire(msg.sender == owner, \"Only owner can withdraw money from the contract\");\n\t\tmsg.sender.transfer(amount);\n\t}\n\n\tfunction widthdraw(address payable myFriend) public {\n\t\trequire(msg.sender == owner, \"Only owner can withdraw money from the contract\");\n\t\tmyFriend.transfer(amount);\n\t}\n\n\tfunction deletePosts() public {\n\t\tdelete posts;\n\t}\n}\n",
  "sourcePath": "/Users/pavelbelakov/Documents/GitHub/eth4top/smart-contract/contracts/EthTop.sol",
  "compiler": {
    "name": "solc",
    "version": "0.5.0+commit.1d4f565a.Emscripten.clang"
  },
  "schemaVersion": "3.0.2",
  "updatedAt": "2019-07-23T17:24:59.490Z",
  "devdoc": {
    "methods": {}
  },
  "userdoc": {
    "methods": {}
  }
}