{
  "contractName": "EthTop",
  "abi": [
    {
      "constant": true,
      "inputs": [
        {
          "name": "",
          "type": "uint256"
        }
      ],
      "name": "posts",
      "outputs": [
        {
          "name": "text",
          "type": "string"
        },
        {
          "name": "id",
          "type": "uint256"
        },
        {
          "name": "price",
          "type": "uint256"
        },
        {
          "name": "timestamp",
          "type": "uint256"
        },
        {
          "name": "author",
          "type": "address"
        }
      ],
      "payable": false,
      "stateMutability": "view",
      "type": "function",
      "signature": "0x0b1e7f83"
    },
    {
      "inputs": [],
      "payable": false,
      "stateMutability": "nonpayable",
      "type": "constructor",
      "signature": "constructor"
    },
    {
      "anonymous": false,
      "inputs": [
        {
          "indexed": false,
          "name": "_text",
          "type": "string"
        },
        {
          "indexed": true,
          "name": "_id",
          "type": "uint256"
        },
        {
          "indexed": false,
          "name": "_price",
          "type": "uint256"
        },
        {
          "indexed": true,
          "name": "_author",
          "type": "address"
        }
      ],
      "name": "PostCreated",
      "type": "event",
      "signature": "0x81d3adda78501c6f82b6407cd5230e45ed8a4030b65f4a2f14118d5bd338bf21"
    },
    {
      "constant": false,
      "inputs": [
        {
          "name": "_text",
          "type": "string"
        }
      ],
      "name": "createPost",
      "outputs": [
        {
          "name": "",
          "type": "uint256"
        }
      ],
      "payable": true,
      "stateMutability": "payable",
      "type": "function",
      "signature": "0xc7303c61"
    },
    {
      "constant": true,
      "inputs": [],
      "name": "getTopTenIds",
      "outputs": [
        {
          "name": "",
          "type": "uint256[]"
        }
      ],
      "payable": false,
      "stateMutability": "view",
      "type": "function",
      "signature": "0xc9494bf1"
    },
    {
      "constant": true,
      "inputs": [],
      "name": "getAllPosts",
      "outputs": [
        {
          "name": "",
          "type": "uint256[]"
        },
        {
          "name": "",
          "type": "uint256[]"
        },
        {
          "name": "",
          "type": "uint256[]"
        },
        {
          "name": "",
          "type": "address[]"
        }
      ],
      "payable": false,
      "stateMutability": "view",
      "type": "function",
      "signature": "0x30561100"
    },
    {
      "constant": true,
      "inputs": [],
      "name": "getTenPostsTexts",
      "outputs": [
        {
          "name": "postsPage",
          "type": "string[10]"
        }
      ],
      "payable": false,
      "stateMutability": "view",
      "type": "function",
      "signature": "0xdb020d5c"
    },
    {
      "constant": true,
      "inputs": [],
      "name": "getAmount",
      "outputs": [
        {
          "name": "",
          "type": "uint256"
        }
      ],
      "payable": false,
      "stateMutability": "view",
      "type": "function",
      "signature": "0xd321fe29"
    },
    {
      "constant": false,
      "inputs": [],
      "name": "widthdraw",
      "outputs": [],
      "payable": false,
      "stateMutability": "nonpayable",
      "type": "function",
      "signature": "0x52b50a2a"
    },
    {
      "constant": false,
      "inputs": [
        {
          "name": "myFriend",
          "type": "address"
        }
      ],
      "name": "widthdraw",
      "outputs": [],
      "payable": false,
      "stateMutability": "nonpayable",
      "type": "function",
      "signature": "0x8a4d6136"
    },
    {
      "constant": false,
      "inputs": [],
      "name": "deletePosts",
      "outputs": [],
      "payable": false,
      "stateMutability": "nonpayable",
      "type": "function",
      "signature": "0x662a97d4"
    }
  ],
  "bytecode": "0x608060405234801561001057600080fd5b50336000806101000a81548173ffffffffffffffffffffffffffffffffffffffff021916908373ffffffffffffffffffffffffffffffffffffffff160217905550600060018190555061162f806100686000396000f3fe608060405260043610610099576000357c0100000000000000000000000000000000000000000000000000000000900463ffffffff1680630b1e7f831461009e57806330561100146100df57806352b50a2a1461010d578063662a97d4146101245780638a4d61361461013b578063c7303c6114610164578063c9494bf114610194578063d321fe29146101bf578063db020d5c146101ea575b600080fd5b3480156100aa57600080fd5b506100c560048036036100c091908101906110da565b610215565b6040516100d69594939291906113da565b60405180910390f35b3480156100eb57600080fd5b506100f4610312565b6040516101049493929190611349565b60405180910390f35b34801561011957600080fd5b50610122610675565b005b34801561013057600080fd5b50610139610751565b005b34801561014757600080fd5b50610162600480360361015d9190810190611070565b610761565b005b61017e60048036036101799190810190611099565b61083e565b60405161018b9190611454565b60405180910390f35b3480156101a057600080fd5b506101a96109c5565b6040516101b69190611327565b60405180910390f35b3480156101cb57600080fd5b506101d4610a84565b6040516101e19190611454565b60405180910390f35b3480156101f657600080fd5b506101ff610a8e565b60405161020c9190611305565b60405180910390f35b60028181548110151561022457fe5b9060005260206000209060050201600091509050806000018054600181600116156101000203166002900480601f0160208091040260200160405190810160405280929190818152602001828054600181600116156101000203166002900480156102d05780601f106102a5576101008083540402835291602001916102d0565b820191906000526020600020905b8154815290600101906020018083116102b357829003601f168201915b5050505050908060010154908060020154908060030154908060040160009054906101000a900473ffffffffffffffffffffffffffffffffffffffff16905085565b6060806060806000600280549050905060608160405190808252806020026020018201604052801561035857816020015b60608152602001906001900390816103435790505b50905060608260405190808252806020026020018201604052801561038c5781602001602082028038833980820191505090505b5090506060836040519080825280602002602001820160405280156103c05781602001602082028038833980820191505090505b5090506060846040519080825280602002602001820160405280156103f45781602001602082028038833980820191505090505b5090506060856040519080825280602002602001820160405280156104285781602001602082028038833980820191505090505b50905060008090505b8681101561065c5760028181548110151561044857fe5b90600052602060002090600502016000018054600181600116156101000203166002900480601f0160208091040260200160405190810160405280929190818152602001828054600181600116156101000203166002900480156104ed5780601f106104c2576101008083540402835291602001916104ed565b820191906000526020600020905b8154815290600101906020018083116104d057829003601f168201915b5050505050868281518110151561050057fe5b9060200190602002018190525060028181548110151561051c57fe5b906000526020600020906005020160010154858281518110151561053c57fe5b906020019060200201818152505060028181548110151561055957fe5b906000526020600020906005020160020154848281518110151561057957fe5b906020019060200201818152505060028181548110151561059657fe5b90600052602060002090600502016003015483828151811015156105b657fe5b90602001906020020181815250506002818154811015156105d357fe5b906000526020600020906005020160040160009054906101000a900473ffffffffffffffffffffffffffffffffffffffff16828281518110151561061357fe5b9060200190602002019073ffffffffffffffffffffffffffffffffffffffff16908173ffffffffffffffffffffffffffffffffffffffff16815250508080600101915050610431565b5083838383995099509950995050505050505090919293565b6000809054906101000a900473ffffffffffffffffffffffffffffffffffffffff1673ffffffffffffffffffffffffffffffffffffffff163373ffffffffffffffffffffffffffffffffffffffff16141515610706576040517f08c379a00000000000000000000000000000000000000000000000000000000081526004016106fd90611434565b60405180910390fd5b3373ffffffffffffffffffffffffffffffffffffffff166108fc6001549081150290604051600060405180830381858888f1935050505015801561074e573d6000803e3d6000fd5b50565b6002600061075f9190610e04565b565b6000809054906101000a900473ffffffffffffffffffffffffffffffffffffffff1673ffffffffffffffffffffffffffffffffffffffff163373ffffffffffffffffffffffffffffffffffffffff161415156107f2576040517f08c379a00000000000000000000000000000000000000000000000000000000081526004016107e990611434565b60405180910390fd5b8073ffffffffffffffffffffffffffffffffffffffff166108fc6001549081150290604051600060405180830381858888f1935050505015801561083a573d6000803e3d6000fd5b5050565b6000806001600260a060405190810160405280868152602001600081526020013481526020014281526020013373ffffffffffffffffffffffffffffffffffffffff168152509080600181540180825580915050906001820390600052602060002090600502016000909192909190915060008201518160000190805190602001906108cb929190610e28565b5060208201518160010155604082015181600201556060820151816003015560808201518160040160006101000a81548173ffffffffffffffffffffffffffffffffffffffff021916908373ffffffffffffffffffffffffffffffffffffffff16021790555050500390508060028281548110151561094657fe5b906000526020600020906005020160010181905550346001600082825401925050819055503373ffffffffffffffffffffffffffffffffffffffff16817f81d3adda78501c6f82b6407cd5230e45ed8a4030b65f4a2f14118d5bd338bf2185346040516109b49291906113aa565b60405180910390a380915050919050565b6060806109d0610b96565b90506000600a8251106109e457600a6109e7565b81515b9050606081604051908082528060200260200182016040528015610a1a5781602001602082028038833980820191505090505b50905060008090505b82811015610a7a578351811015610a6d578381815181101515610a4257fe5b90602001906020020151602001518282815181101515610a5e57fe5b90602001906020020181815250505b8080600101915050610a23565b5080935050505090565b6000600154905090565b610a96610ea8565b60008090505b600a811015610b8f57600280549050811015610b8257600281815481101515610ac157fe5b90600052602060002090600502016000018054600181600116156101000203166002900480601f016020809104026020016040519081016040528092919081815260200182805460018160011615610100020316600290048015610b665780601f10610b3b57610100808354040283529160200191610b66565b820191906000526020600020905b815481529060010190602001808311610b4957829003601f168201915b50505050508282600a81101515610b7957fe5b60200201819052505b8080600101915050610a9c565b5080905090565b6060806002805480602002602001604051908101604052809291908181526020016000905b82821015610d04578382906000526020600020906005020160a06040519081016040529081600082018054600181600116156101000203166002900480601f016020809104026020016040519081016040528092919081815260200182805460018160011615610100020316600290048015610c785780601f10610c4d57610100808354040283529160200191610c78565b820191906000526020600020905b815481529060010190602001808311610c5b57829003601f168201915b505050505081526020016001820154815260200160028201548152602001600382015481526020016004820160009054906101000a900473ffffffffffffffffffffffffffffffffffffffff1673ffffffffffffffffffffffffffffffffffffffff1673ffffffffffffffffffffffffffffffffffffffff168152505081526020019060010190610bbb565b505050509050610d12610ed1565b6000600190505b8015610dfb57600090506000600190505b8351811015610df5578381815181101515610d4157fe5b90602001906020020151604001518460018303815181101515610d6057fe5b90602001906020020151604001511015610de8578360018203815181101515610d8557fe5b9060200190602002015192508381815181101515610d9f57fe5b906020019060200201518460018303815181101515610dba57fe5b90602001906020020181905250828482815181101515610dd657fe5b90602001906020020181905250600191505b8080600101915050610d2a565b50610d19565b82935050505090565b5080546000825560050290600052602060002090810190610e259190610f17565b50565b828054600181600116156101000203166002900490600052602060002090601f016020900481019282601f10610e6957805160ff1916838001178555610e97565b82800160010185558215610e97579182015b82811115610e96578251825591602001919060010190610e7b565b5b509050610ea49190610f85565b5090565b61014060405190810160405280600a905b6060815260200190600190039081610eb95790505090565b60a06040519081016040528060608152602001600081526020016000815260200160008152602001600073ffffffffffffffffffffffffffffffffffffffff1681525090565b610f8291905b80821115610f7e5760008082016000610f369190610faa565b6001820160009055600282016000905560038201600090556004820160006101000a81549073ffffffffffffffffffffffffffffffffffffffff021916905550600501610f1d565b5090565b90565b610fa791905b80821115610fa3576000816000905550600101610f8b565b5090565b90565b50805460018160011615610100020316600290046000825580601f10610fd05750610fef565b601f016020900490600052602060002090810190610fee9190610f85565b5b50565b6000610ffe8235611586565b905092915050565b600082601f830112151561101957600080fd5b813561102c6110278261149c565b61146f565b9150808252602083016020830185838301111561104857600080fd5b6110538382846115a2565b50505092915050565b60006110688235611598565b905092915050565b60006020828403121561108257600080fd5b600061109084828501610ff2565b91505092915050565b6000602082840312156110ab57600080fd5b600082013567ffffffffffffffff8111156110c557600080fd5b6110d184828501611006565b91505092915050565b6000602082840312156110ec57600080fd5b60006110fa8482850161105c565b91505092915050565b61110c8161154a565b82525050565b600061111d826114ec565b80845260208401935061112f836114c8565b60005b8281101561116157611145868351611103565b61114e82611523565b9150602086019550600181019050611132565b50849250505092915050565b6000611178826114f7565b83602082028501611188856114d5565b60005b848110156111c15783830388526111a3838351611263565b92506111ae82611530565b915060208801975060018101905061118b565b508196508694505050505092915050565b60006111dd82611502565b8084526020840193506111ef836114df565b60005b82811015611221576112058683516112f6565b61120e8261153d565b91506020860195506001810190506111f2565b50849250505092915050565b600061123882611518565b80845261124c8160208601602086016115b1565b611255816115e4565b602085010191505092915050565b600061126e8261150d565b8084526112828160208601602086016115b1565b61128b816115e4565b602085010191505092915050565b6000602f82527f4f6e6c79206f776e65722063616e207769746864726177206d6f6e657920667260208301527f6f6d2074686520636f6e747261637400000000000000000000000000000000006040830152606082019050919050565b6112ff8161157c565b82525050565b6000602082019050818103600083015261131f818461116d565b905092915050565b6000602082019050818103600083015261134181846111d2565b905092915050565b6000608082019050818103600083015261136381876111d2565b9050818103602083015261137781866111d2565b9050818103604083015261138b81856111d2565b9050818103606083015261139f8184611112565b905095945050505050565b600060408201905081810360008301526113c4818561122d565b90506113d360208301846112f6565b9392505050565b600060a08201905081810360008301526113f48188611263565b905061140360208301876112f6565b61141060408301866112f6565b61141d60608301856112f6565b61142a6080830184611103565b9695505050505050565b6000602082019050818103600083015261144d81611299565b9050919050565b600060208201905061146960008301846112f6565b92915050565b6000604051905081810181811067ffffffffffffffff8211171561149257600080fd5b8060405250919050565b600067ffffffffffffffff8211156114b357600080fd5b601f19601f8301169050602081019050919050565b6000602082019050919050565b6000819050919050565b6000602082019050919050565b600081519050919050565b6000600a9050919050565b600081519050919050565b600081519050919050565b600081519050919050565b6000602082019050919050565b6000602082019050919050565b6000602082019050919050565b60006115558261155c565b9050919050565b600073ffffffffffffffffffffffffffffffffffffffff82169050919050565b6000819050919050565b60006115918261155c565b9050919050565b6000819050919050565b82818337600083830152505050565b60005b838110156115cf5780820151818401526020810190506115b4565b838111156115de576000848401525b50505050565b6000601f19601f830116905091905056fea265627a7a7230582016df1322cad14e9285ae0e43250d823d7681ad04fcf5d7e2e91d49d4a216e5456c6578706572696d656e74616cf50037",
  "source": "pragma solidity >=0.4.25 <0.6.0;\npragma experimental ABIEncoderV2;\n// This is just a simple example of a coin-like contract.\n// It is not standards compatible and cannot be expected to talk to other\n// coin/token contracts. If you want to create a standards-compliant\n// token, see: https://github.com/ConsenSys/Tokens. Cheers!\n\ncontract EthTop {\n\taddress owner;\n\tuint amount; // деньги на контракте\n\n\t// описывает один пост\n\tstruct Post {\n\t\tstring text; // содержание поста\n\t\tuint id; //  уникальный id ( тупо индекс будет )\n\t\tuint price; // сколько бабок заплачено - по нему сортируем\n\t\tuint timestamp; // когда был создан пост\n\t\taddress author; // да\n\t}\n\n  // массив для хранения постов\n\tPost[] public posts;\n\n\tconstructor() public {\n\t\towner = msg.sender;\n\t\tamount = 0;\n\t}\n\n\t// событие создания поста\n\tevent PostCreated(string _text, uint indexed _id, uint _price, address indexed _author);\n\n\tfunction createPost(string memory _text) public payable returns (uint){\n\t\tuint id = posts.push(\n\t\t\tPost(\n\t\t\t\t_text,\n\t\t\t\t0,\n\t\t\t\tmsg.value,\n\t\t\t\tnow,\n\t\t\t\tmsg.sender\n\t\t\t)\n\t\t) - 1;\n\t\tposts[id].id = id;\n\t\tamount += msg.value;\n\t\temit PostCreated(_text, id, msg.value, msg.sender);\n\t\treturn id;\n\t}\n\n\tfunction sortByPrice() private view returns (Post[] memory) {\n\t\tPost[] memory sortedPosts = posts;\n\t\tPost memory tmpPost;\n\t\tbool flag = true;\n\t\twhile(flag) {\n\t\t\tflag = false;\n\t\t\tfor( uint i = 1; i < sortedPosts.length; i++ ) {\n\t\t\t\tif( sortedPosts[i-1].price < sortedPosts[i].price ) {\n\t\t\t\t\ttmpPost = sortedPosts[i-1];\n\t\t\t\t\tsortedPosts[i-1] = sortedPosts[i];\n\t\t\t\t\tsortedPosts[i] = tmpPost;\n\t\t\t\t\tflag = true;\n\t\t\t\t}\n\t\t\t}\n\t\t}\n\t\treturn sortedPosts;\n\t}\n\n\tfunction getTopTenIds() external view returns ( uint[] memory ) {\n\t\tPost[] memory sortedPosts = sortByPrice();\n\t\tuint size = sortedPosts.length < 10 ? sortedPosts.length : 10;\n\t\tuint[] memory topTen = new uint[] (size);\n\n\t\tfor( uint i = 0; i < size; i++) {\n\t\t\tif( i < sortedPosts.length ) {\n\t\t\t\ttopTen[i] = sortedPosts[i].id;\n\t\t\t}\n\t\t}\n\t\treturn topTen;\n\t}\n\n\tfunction getAllPosts()\n\t\texternal\n\t\tview\n\t\treturns(uint[] memory, uint[] memory, uint[] memory, address[] memory)\n\t{\n\t\tuint size = posts.length;\n\t\tstring[] memory texts = new string[](size);\n\t\tuint[] memory ids = new uint[](size);\n\t\tuint[] memory prices = new uint[](size);\n\t\tuint[] memory timestamps = new uint[](size);\n\t\taddress[] memory authors = new address[](size);\n\n\t\tfor( uint i = 0; i < size; i++ ) {\n\t\t\ttexts[i] = posts[i].text;\n\t\t\tids[i] = posts[i].id;\n\t\t\tprices[i] = posts[i].price;\n\t\t\ttimestamps[i] = posts[i].timestamp;\n\t\t\tauthors[i] = posts[i].author;\n\t\t}\n\n\t\treturn (ids, prices, timestamps, authors);\n\t}\n\n\tfunction getTenPostsTexts()\n\t\texternal\n\t\tview\n\t\treturns(string[10] memory postsPage) {\n\t\t\tfor( uint i = 0; i < 10; i++) {\n\t\t\t\tif( i < posts.length ) {\n\t\t\t\t\tpostsPage[i] = posts[i].text;\n\t\t\t\t}\n\t\t\t}\n\t\t\treturn postsPage;\n\t\t}\n\n\tfunction getAmount() public view returns (uint) {\n\t\treturn amount;\n\t}\n\n\tfunction widthdraw() public {\n\t\trequire(msg.sender == owner, \"Only owner can withdraw money from the contract\");\n\t\tmsg.sender.transfer(amount);\n\t}\n\n\tfunction widthdraw(address payable myFriend) public {\n\t\trequire(msg.sender == owner, \"Only owner can withdraw money from the contract\");\n\t\tmyFriend.transfer(amount);\n\t}\n\n\tfunction deletePosts() public {\n\t\tdelete posts;\n\t}\n}\n",
  "sourcePath": "/Users/pavelbelakov/Documents/GitHub/eth4top/smart-contract/contracts/EthTop.sol",
  "compiler": {
    "name": "solc",
    "version": "0.5.0+commit.1d4f565a.Emscripten.clang"
  },
  "schemaVersion": "3.0.2",
  "updatedAt": "2019-07-23T14:17:46.004Z",
  "devdoc": {
    "methods": {}
  },
  "userdoc": {
    "methods": {}
  }
}