{
  "contractName": "EthTop",
  "abi": [
    {
      "constant": true,
      "inputs": [
        {
          "name": "",
          "type": "uint256"
        }
      ],
      "name": "posts",
      "outputs": [
        {
          "name": "text",
          "type": "string"
        },
        {
          "name": "id",
          "type": "uint256"
        },
        {
          "name": "price",
          "type": "uint256"
        },
        {
          "name": "author",
          "type": "address"
        }
      ],
      "payable": false,
      "stateMutability": "view",
      "type": "function"
    },
    {
      "inputs": [],
      "payable": false,
      "stateMutability": "nonpayable",
      "type": "constructor"
    },
    {
      "anonymous": false,
      "inputs": [
        {
          "indexed": false,
          "name": "_text",
          "type": "string"
        },
        {
          "indexed": true,
          "name": "_id",
          "type": "uint256"
        },
        {
          "indexed": false,
          "name": "_price",
          "type": "uint256"
        },
        {
          "indexed": true,
          "name": "_author",
          "type": "address"
        }
      ],
      "name": "PostCreated",
      "type": "event"
    },
    {
      "anonymous": false,
      "inputs": [
        {
          "indexed": true,
          "name": "_id",
          "type": "uint256"
        },
        {
          "indexed": false,
          "name": "_price",
          "type": "uint256"
        },
        {
          "indexed": true,
          "name": "_author",
          "type": "address"
        }
      ],
      "name": "PostUpdated",
      "type": "event"
    },
    {
      "constant": false,
      "inputs": [
        {
          "name": "_text",
          "type": "string"
        }
      ],
      "name": "createPost",
      "outputs": [
        {
          "name": "",
          "type": "uint256"
        }
      ],
      "payable": true,
      "stateMutability": "payable",
      "type": "function"
    }
  ],
  "bytecode": "0x608060405234801561001057600080fd5b50336000806101000a81548173ffffffffffffffffffffffffffffffffffffffff021916908373ffffffffffffffffffffffffffffffffffffffff16021790555060006001819055506105af806100686000396000f3fe60806040526004361061004c576000357c0100000000000000000000000000000000000000000000000000000000900463ffffffff1680630b1e7f8314610051578063c7303c6114610146575b600080fd5b34801561005d57600080fd5b5061008a6004803603602081101561007457600080fd5b8101908080359060200190929190505050610215565b60405180806020018581526020018481526020018373ffffffffffffffffffffffffffffffffffffffff1673ffffffffffffffffffffffffffffffffffffffff168152602001828103825286818151815260200191508051906020019080838360005b838110156101085780820151818401526020810190506100ed565b50505050905090810190601f1680156101355780820380516001836020036101000a031916815260200191505b509550505050505060405180910390f35b6101ff6004803603602081101561015c57600080fd5b810190808035906020019064010000000081111561017957600080fd5b82018360208201111561018b57600080fd5b803590602001918460018302840111640100000000831117156101ad57600080fd5b91908080601f016020809104026020016040519081016040528093929190818152602001838380828437600081840152601f19601f82011690508083019250505050505050919291929050505061030c565b6040518082815260200191505060405180910390f35b60028181548110151561022457fe5b9060005260206000209060040201600091509050806000018054600181600116156101000203166002900480601f0160208091040260200160405190810160405280929190818152602001828054600181600116156101000203166002900480156102d05780601f106102a5576101008083540402835291602001916102d0565b820191906000526020600020905b8154815290600101906020018083116102b357829003601f168201915b5050505050908060010154908060020154908060030160009054906101000a900473ffffffffffffffffffffffffffffffffffffffff16905084565b60008060016002608060405190810160405280868152602001600081526020013481526020013373ffffffffffffffffffffffffffffffffffffffff168152509080600181540180825580915050906001820390600052602060002090600402016000909192909190915060008201518160000190805190602001906103939291906104de565b50602082015181600101556040820151816002015560608201518160030160006101000a81548173ffffffffffffffffffffffffffffffffffffffff021916908373ffffffffffffffffffffffffffffffffffffffff16021790555050500390508060028281548110151561040457fe5b9060005260206000209060040201600101819055503373ffffffffffffffffffffffffffffffffffffffff16817f81d3adda78501c6f82b6407cd5230e45ed8a4030b65f4a2f14118d5bd338bf2185346040518080602001838152602001828103825284818151815260200191508051906020019080838360005b8381101561049a57808201518184015260208101905061047f565b50505050905090810190601f1680156104c75780820380516001836020036101000a031916815260200191505b50935050505060405180910390a380915050919050565b828054600181600116156101000203166002900490600052602060002090601f016020900481019282601f1061051f57805160ff191683800117855561054d565b8280016001018555821561054d579182015b8281111561054c578251825591602001919060010190610531565b5b50905061055a919061055e565b5090565b61058091905b8082111561057c576000816000905550600101610564565b5090565b9056fea165627a7a72305820a0f36856bbf5d32617e7061ff9b4b9f4960730beea2da6d034d6890982dd759e0029",
  "source": "pragma solidity >=0.4.25 <0.6.0;\n\n// This is just a simple example of a coin-like contract.\n// It is not standards compatible and cannot be expected to talk to other\n// coin/token contracts. If you want to create a standards-compliant\n// token, see: https://github.com/ConsenSys/Tokens. Cheers!\n\ncontract EthTop {\n\taddress owner;\n\tuint amount; // деньги на контракте\n\n\t// описывает один пост\n\tstruct Post {\n\t\tstring text; // содержание поста\n\t\tuint id; //  уникальный id ( тупо индекс будет )\n\t\tuint price; // сколько бабок заплачено - по нему сортируем\n\t\taddress author; // да\n\t}\n\n  // массив для хранения постов\n\tPost[] public posts;\n\n\tconstructor() public {\n\t\towner = msg.sender;\n\t\tamount = 0;\n\t}\n\n\t// пост создан\n\tevent PostCreated(string _text, uint indexed _id, uint _price, address indexed _author);\n\t// пост такой-то получил стлько-то денег\n\tevent PostUpdated(uint indexed _id, uint _price, address indexed _author);\n\n\tfunction createPost(string memory _text) public payable returns (uint){\n\t\tuint id = posts.push(Post(_text, 0, msg.value, msg.sender)) - 1;\n\t\tposts[id].id = id;\n\t\temit PostCreated(_text, id, msg.value, msg.sender);\n\t\treturn id;\n\t}\n\n\t/*(function updatePost(uint _id) external payable {\n\t\tuint money = msg.value;\n\t\tamout += money;\n\t\tposts[_id].price += money;// тут money уже может быть равен нулю\n\t}*/\n\n\t/*function getPosts(uint _count ,uint _offset) external view {\n\t\treturn posts;\n\t}*/\n\n\t/*function widthdraw() public {\n\t\trequire( msg.sender == owner);\n\t\towner.transfer( address(this).balance );\n\t}*/\n}\n",
  "sourcePath": "/Users/pavelbelakov/Documents/GitHub/eth4top/smart-contract/contracts/EthTop.sol",
  "compiler": {
    "name": "solc",
    "version": "0.5.0+commit.1d4f565a.Emscripten.clang"
  },
  "schemaVersion": "3.0.2",
  "updatedAt": "2019-05-16T11:23:54.157Z",
  "devdoc": {
    "methods": {}
  },
  "userdoc": {
    "methods": {}
  }
}