{
  "contractName": "EthTop",
  "abi": [
    {
      "constant": true,
      "inputs": [
        {
          "name": "",
          "type": "uint256"
        }
      ],
      "name": "posts",
      "outputs": [
        {
          "name": "text",
          "type": "string"
        },
        {
          "name": "id",
          "type": "uint256"
        },
        {
          "name": "price",
          "type": "uint256"
        },
        {
          "name": "timestamp",
          "type": "uint256"
        },
        {
          "name": "author",
          "type": "address"
        }
      ],
      "payable": false,
      "stateMutability": "view",
      "type": "function",
      "signature": "0x0b1e7f83"
    },
    {
      "inputs": [],
      "payable": false,
      "stateMutability": "nonpayable",
      "type": "constructor",
      "signature": "constructor"
    },
    {
      "anonymous": false,
      "inputs": [
        {
          "indexed": false,
          "name": "_text",
          "type": "string"
        },
        {
          "indexed": true,
          "name": "_id",
          "type": "uint256"
        },
        {
          "indexed": false,
          "name": "_price",
          "type": "uint256"
        },
        {
          "indexed": true,
          "name": "_author",
          "type": "address"
        }
      ],
      "name": "PostCreated",
      "type": "event",
      "signature": "0x81d3adda78501c6f82b6407cd5230e45ed8a4030b65f4a2f14118d5bd338bf21"
    },
    {
      "constant": false,
      "inputs": [
        {
          "name": "_text",
          "type": "string"
        }
      ],
      "name": "createPost",
      "outputs": [
        {
          "name": "",
          "type": "uint256"
        }
      ],
      "payable": true,
      "stateMutability": "payable",
      "type": "function",
      "signature": "0xc7303c61"
    },
    {
      "constant": true,
      "inputs": [],
      "name": "getTopTenPosts",
      "outputs": [
        {
          "components": [
            {
              "name": "text",
              "type": "string"
            },
            {
              "name": "id",
              "type": "uint256"
            },
            {
              "name": "price",
              "type": "uint256"
            },
            {
              "name": "timestamp",
              "type": "uint256"
            },
            {
              "name": "author",
              "type": "address"
            }
          ],
          "name": "",
          "type": "tuple[]"
        }
      ],
      "payable": false,
      "stateMutability": "view",
      "type": "function",
      "signature": "0xdd30d696"
    },
    {
      "constant": true,
      "inputs": [],
      "name": "getTopTenIds",
      "outputs": [
        {
          "name": "",
          "type": "uint256[]"
        }
      ],
      "payable": false,
      "stateMutability": "view",
      "type": "function",
      "signature": "0xc9494bf1"
    },
    {
      "constant": true,
      "inputs": [
        {
          "name": "_count",
          "type": "uint256"
        },
        {
          "name": "_offset",
          "type": "uint256"
        }
      ],
      "name": "getPosts",
      "outputs": [
        {
          "components": [
            {
              "name": "text",
              "type": "string"
            },
            {
              "name": "id",
              "type": "uint256"
            },
            {
              "name": "price",
              "type": "uint256"
            },
            {
              "name": "timestamp",
              "type": "uint256"
            },
            {
              "name": "author",
              "type": "address"
            }
          ],
          "name": "",
          "type": "tuple[]"
        }
      ],
      "payable": false,
      "stateMutability": "view",
      "type": "function",
      "signature": "0x4ffd1be6"
    },
    {
      "constant": true,
      "inputs": [],
      "name": "getAmount",
      "outputs": [
        {
          "name": "",
          "type": "uint256"
        }
      ],
      "payable": false,
      "stateMutability": "view",
      "type": "function",
      "signature": "0xd321fe29"
    },
    {
      "constant": false,
      "inputs": [],
      "name": "widthdraw",
      "outputs": [],
      "payable": false,
      "stateMutability": "nonpayable",
      "type": "function",
      "signature": "0x52b50a2a"
    }
  ],
  "bytecode": "0x608060405234801561001057600080fd5b50336000806101000a81548173ffffffffffffffffffffffffffffffffffffffff021916908373ffffffffffffffffffffffffffffffffffffffff16021790555060006001819055506111f7806100686000396000f3fe608060405260043610610083576000357c0100000000000000000000000000000000000000000000000000000000900463ffffffff1680630b1e7f83146100885780634ffd1be6146100c957806352b50a2a14610106578063c7303c611461011d578063c9494bf11461014d578063d321fe2914610178578063dd30d696146101a3575b600080fd5b34801561009457600080fd5b506100af60048036036100aa9190810190610cd7565b6101ce565b6040516100c0959493929190610fd6565b60405180910390f35b3480156100d557600080fd5b506100f060048036036100eb9190810190610d00565b6102cb565b6040516100fd9190610f62565b60405180910390f35b34801561011257600080fd5b5061011b6104a6565b005b61013760048036036101329190810190610c96565b610582565b6040516101449190611050565b60405180910390f35b34801561015957600080fd5b50610162610709565b60405161016f9190610f84565b60405180910390f35b34801561018457600080fd5b5061018d6107c8565b60405161019a9190611050565b60405180910390f35b3480156101af57600080fd5b506101b86107d2565b6040516101c59190610f62565b60405180910390f35b6002818154811015156101dd57fe5b9060005260206000209060050201600091509050806000018054600181600116156101000203166002900480601f0160208091040260200160405190810160405280929190818152602001828054600181600116156101000203166002900480156102895780601f1061025e57610100808354040283529160200191610289565b820191906000526020600020905b81548152906001019060200180831161026c57829003601f168201915b5050505050908060010154908060020154908060030154908060040160009054906101000a900473ffffffffffffffffffffffffffffffffffffffff16905085565b6060808360405190808252806020026020018201604052801561030857816020015b6102f5610afb565b8152602001906001900390816102ed5790505b509050600080905060008490505b85850181101561049d576002805490508110156104905760028181548110151561033c57fe5b906000526020600020906005020160a06040519081016040529081600082018054600181600116156101000203166002900480601f0160208091040260200160405190810160405280929190818152602001828054600181600116156101000203166002900480156103ef5780601f106103c4576101008083540402835291602001916103ef565b820191906000526020600020905b8154815290600101906020018083116103d257829003601f168201915b505050505081526020016001820154815260200160028201548152602001600382015481526020016004820160009054906101000a900473ffffffffffffffffffffffffffffffffffffffff1673ffffffffffffffffffffffffffffffffffffffff1673ffffffffffffffffffffffffffffffffffffffff1681525050838381518110151561047a57fe5b9060200190602002018190525081806001019250505b8080600101915050610316565b50505092915050565b6000809054906101000a900473ffffffffffffffffffffffffffffffffffffffff1673ffffffffffffffffffffffffffffffffffffffff163373ffffffffffffffffffffffffffffffffffffffff16141515610537576040517f08c379a000000000000000000000000000000000000000000000000000000000815260040161052e90611030565b60405180910390fd5b3373ffffffffffffffffffffffffffffffffffffffff166108fc6001549081150290604051600060405180830381858888f1935050505015801561057f573d6000803e3d6000fd5b50565b6000806001600260a060405190810160405280868152602001600081526020013481526020014281526020013373ffffffffffffffffffffffffffffffffffffffff1681525090806001815401808255809150509060018203906000526020600020906005020160009091929091909150600082015181600001908051906020019061060f929190610b41565b5060208201518160010155604082015181600201556060820151816003015560808201518160040160006101000a81548173ffffffffffffffffffffffffffffffffffffffff021916908373ffffffffffffffffffffffffffffffffffffffff16021790555050500390508060028281548110151561068a57fe5b906000526020600020906005020160010181905550346001600082825401925050819055503373ffffffffffffffffffffffffffffffffffffffff16817f81d3adda78501c6f82b6407cd5230e45ed8a4030b65f4a2f14118d5bd338bf2185346040516106f8929190610fa6565b60405180910390a380915050919050565b60608061071461088d565b90506000600a82511061072857600a61072b565b81515b905060608160405190808252806020026020018201604052801561075e5781602001602082028038833980820191505090505b50905060008090505b828110156107be5783518110156107b157838181518110151561078657fe5b906020019060200201516020015182828151811015156107a257fe5b90602001906020020181815250505b8080600101915050610767565b5080935050505090565b6000600154905090565b6060806107dd61088d565b90506000600a8251106107f157600a6107f4565b81515b905060608160405190808252806020026020018201604052801561083257816020015b61081f610afb565b8152602001906001900390816108175790505b50905060008090505b8281101561088357838181518110151561085157fe5b90602001906020020151828281518110151561086957fe5b90602001906020020181905250808060010191505061083b565b5080935050505090565b6060806002805480602002602001604051908101604052809291908181526020016000905b828210156109fb578382906000526020600020906005020160a06040519081016040529081600082018054600181600116156101000203166002900480601f01602080910402602001604051908101604052809291908181526020018280546001816001161561010002031660029004801561096f5780601f106109445761010080835404028352916020019161096f565b820191906000526020600020905b81548152906001019060200180831161095257829003601f168201915b505050505081526020016001820154815260200160028201548152602001600382015481526020016004820160009054906101000a900473ffffffffffffffffffffffffffffffffffffffff1673ffffffffffffffffffffffffffffffffffffffff1673ffffffffffffffffffffffffffffffffffffffff1681525050815260200190600101906108b2565b505050509050610a09610bc1565b6000600190505b8015610af257600190506000600190505b8351811015610aec578381815181101515610a3857fe5b90602001906020020151604001518460018303815181101515610a5757fe5b90602001906020020151604001511015610adf578360018203815181101515610a7c57fe5b9060200190602002015192508381815181101515610a9657fe5b906020019060200201518460018303815181101515610ab157fe5b90602001906020020181905250828482815181101515610acd57fe5b90602001906020020181905250600091505b8080600101915050610a21565b50610a10565b82935050505090565b60a06040519081016040528060608152602001600081526020016000815260200160008152602001600073ffffffffffffffffffffffffffffffffffffffff1681525090565b828054600181600116156101000203166002900490600052602060002090601f016020900481019282601f10610b8257805160ff1916838001178555610bb0565b82800160010185558215610bb0579182015b82811115610baf578251825591602001919060010190610b94565b5b509050610bbd9190610c07565b5090565b60a06040519081016040528060608152602001600081526020016000815260200160008152602001600073ffffffffffffffffffffffffffffffffffffffff1681525090565b610c2991905b80821115610c25576000816000905550600101610c0d565b5090565b90565b600082601f8301121515610c3f57600080fd5b8135610c52610c4d82611098565b61106b565b91508082526020830160208301858383011115610c6e57600080fd5b610c7983828461116a565b50505092915050565b6000610c8e8235611160565b905092915050565b600060208284031215610ca857600080fd5b600082013567ffffffffffffffff811115610cc257600080fd5b610cce84828501610c2c565b91505092915050565b600060208284031215610ce957600080fd5b6000610cf784828501610c82565b91505092915050565b60008060408385031215610d1357600080fd5b6000610d2185828601610c82565b9250506020610d3285828601610c82565b9150509250929050565b610d4581611124565b82525050565b6000610d56826110de565b80845260208401935083602082028501610d6f856110c4565b60005b84811015610da8578383038852610d8a838351610edd565b9250610d958261110a565b9150602088019750600181019050610d72565b508196508694505050505092915050565b6000610dc4826110e9565b808452602084019350610dd6836110d1565b60005b82811015610e0857610dec868351610f53565b610df582611117565b9150602086019550600181019050610dd9565b50849250505092915050565b6000610e1f826110ff565b808452610e33816020860160208601611179565b610e3c816111ac565b602085010191505092915050565b6000610e55826110f4565b808452610e69816020860160208601611179565b610e72816111ac565b602085010191505092915050565b6000602f82527f4f6e6c79206f776e65722063616e207769746864726177206d6f6e657920667260208301527f6f6d2074686520636f6e747261637400000000000000000000000000000000006040830152606082019050919050565b600060a0830160008301518482036000860152610efa8282610e4a565b9150506020830151610f0f6020860182610f53565b506040830151610f226040860182610f53565b506060830151610f356060860182610f53565b506080830151610f486080860182610d3c565b508091505092915050565b610f5c81611156565b82525050565b60006020820190508181036000830152610f7c8184610d4b565b905092915050565b60006020820190508181036000830152610f9e8184610db9565b905092915050565b60006040820190508181036000830152610fc08185610e14565b9050610fcf6020830184610f53565b9392505050565b600060a0820190508181036000830152610ff08188610e4a565b9050610fff6020830187610f53565b61100c6040830186610f53565b6110196060830185610f53565b6110266080830184610d3c565b9695505050505050565b6000602082019050818103600083015261104981610e80565b9050919050565b60006020820190506110656000830184610f53565b92915050565b6000604051905081810181811067ffffffffffffffff8211171561108e57600080fd5b8060405250919050565b600067ffffffffffffffff8211156110af57600080fd5b601f19601f8301169050602081019050919050565b6000602082019050919050565b6000602082019050919050565b600081519050919050565b600081519050919050565b600081519050919050565b600081519050919050565b6000602082019050919050565b6000602082019050919050565b600061112f82611136565b9050919050565b600073ffffffffffffffffffffffffffffffffffffffff82169050919050565b6000819050919050565b6000819050919050565b82818337600083830152505050565b60005b8381101561119757808201518184015260208101905061117c565b838111156111a6576000848401525b50505050565b6000601f19601f830116905091905056fea265627a7a723058205c5d2e9bc5550c40a8291cd2fbb5aefe71a69ec6abaac94c2c1ea2e12185a87f6c6578706572696d656e74616cf50037",
  "source": "pragma solidity >=0.4.25 <0.6.0;\npragma experimental ABIEncoderV2;\n\n// This is just a simple example of a coin-like contract.\n// It is not standards compatible and cannot be expected to talk to other\n// coin/token contracts. If you want to create a standards-compliant\n// token, see: https://github.com/ConsenSys/Tokens. Cheers!\n\ncontract EthTop {\n\taddress owner;\n\tuint amount; // деньги на контракте\n\n\t// описывает один пост\n\tstruct Post {\n\t\tstring text; // содержание поста\n\t\tuint id; //  уникальный id ( тупо индекс будет )\n\t\tuint price; // сколько бабок заплачено - по нему сортируем\n\t\tuint timestamp; // когда был создан пост\n\t\taddress author; // да\n\t}\n\n  \t// массив для хранения постов\n\tPost[] public posts;\n\n\tconstructor() public {\n\t\towner = msg.sender;\n\t\tamount = 0;\n\t}\n\n\t// пост создан\n\tevent PostCreated(string _text, uint indexed _id, uint _price, address indexed _author);\n\n\tfunction createPost(string memory _text) public payable returns (uint){\n\t\tuint id = posts.push(\n\t\t\tPost(\n\t\t\t\t_text,\n\t\t\t\t0,\n\t\t\t\tmsg.value,\n\t\t\t\tnow,\n\t\t\t\tmsg.sender\n\t\t\t)\n\t\t) - 1;\n\t\tposts[id].id = id;\n\t\tamount += msg.value;\n\t\temit PostCreated(_text, id, msg.value, msg.sender);\n\t\treturn id;\n\t}\n\n\tfunction sortByPrice() private view returns (Post[] memory) {\n\t\tPost[] memory sortedPosts = posts;\n\t\tPost memory tmpPost;\n\t\tbool flag = true;\n\t\twhile(flag) {\n\t\t\tflag = true;\n\t\t\tfor( uint i = 1; i < sortedPosts.length; i++ ) {\n\t\t\t\tif( sortedPosts[i-1].price < sortedPosts[i].price ) {\n\t\t\t\t\ttmpPost = sortedPosts[i-1];\n\t\t\t\t\tsortedPosts[i-1] = sortedPosts[i];\n\t\t\t\t\tsortedPosts[i] = tmpPost;\n\t\t\t\t\tflag = false;\n\t\t\t\t}\n\t\t\t}\n\t\t}\n\t\treturn sortedPosts;\n\t}\n\n\tfunction getTopTenPosts() external view returns (Post[] memory) {\n\t\tPost[] memory sortedPosts = sortByPrice();\n\t\tuint size = sortedPosts.length < 10 ? sortedPosts.length : 10;\n\t\tPost[] memory topTen = new Post[] (size);\n\n\t\tfor( uint i = 0; i < size; i++) {\n\t\t\ttopTen[i] = sortedPosts[i];\n\t\t}\n\t\treturn topTen;\n\t}\n\n\tfunction getTopTenIds() external view returns ( uint[] memory ) {\n\t\tPost[] memory sortedPosts = sortByPrice();\n\t\tuint size = sortedPosts.length < 10 ? sortedPosts.length : 10;\n\t\tuint[] memory topTen = new uint[] (size);\n\n\t\tfor( uint i = 0; i < size; i++) {\n\t\t\tif( i < sortedPosts.length ) {\n\t\t\t\ttopTen[i] = sortedPosts[i].id;\n\t\t\t}\n\t\t}\n\t\treturn topTen;\n\t}\n\n\tfunction getPosts(uint _count, uint _offset) external view returns( Post[] memory) {\n\t\tPost[] memory result = new Post[] ( _count);\n\t\tuint counter = 0;\n\t\tfor( uint i = _offset; i < _offset + _count ; i++ ) {\n\t\t\tif( i < posts.length) {\n\t\t\t\tresult[counter] = posts[i];\n\t\t\t\tcounter++;\n\t\t\t}\n\t\t}\n\t}\n\n\tfunction getAmount() public view returns (uint) {\n\t\treturn amount;\n\t}\n\n\tfunction widthdraw() public {\n\t\trequire(msg.sender == owner, \"Only owner can withdraw money from the contract\");\n\t\tmsg.sender.transfer(amount);\n\t}\n}\n",
  "sourcePath": "/Users/pavelbelakov/Documents/GitHub/eth4top/smart-contract/contracts/EthTop.sol",
  "compiler": {
    "name": "solc",
    "version": "0.5.0+commit.1d4f565a.Emscripten.clang"
  },
  "schemaVersion": "3.0.2",
  "updatedAt": "2019-05-20T13:15:48.197Z",
  "devdoc": {
    "methods": {}
  },
  "userdoc": {
    "methods": {}
  }
}