{
  "contractName": "EthTop",
  "abi": [
    {
      "constant": true,
      "inputs": [
        {
          "name": "",
          "type": "uint256"
        }
      ],
      "name": "posts",
      "outputs": [
        {
          "name": "text",
          "type": "string"
        },
        {
          "name": "id",
          "type": "uint256"
        },
        {
          "name": "price",
          "type": "uint256"
        },
        {
          "name": "timestamp",
          "type": "uint256"
        },
        {
          "name": "author",
          "type": "address"
        }
      ],
      "payable": false,
      "stateMutability": "view",
      "type": "function"
    },
    {
      "inputs": [],
      "payable": false,
      "stateMutability": "nonpayable",
      "type": "constructor"
    },
    {
      "anonymous": false,
      "inputs": [
        {
          "indexed": false,
          "name": "_text",
          "type": "string"
        },
        {
          "indexed": true,
          "name": "_id",
          "type": "uint256"
        },
        {
          "indexed": false,
          "name": "_price",
          "type": "uint256"
        },
        {
          "indexed": true,
          "name": "_author",
          "type": "address"
        }
      ],
      "name": "PostCreated",
      "type": "event"
    },
    {
      "anonymous": false,
      "inputs": [
        {
          "indexed": true,
          "name": "_text",
          "type": "string"
        },
        {
          "indexed": false,
          "name": "_price",
          "type": "uint256"
        },
        {
          "indexed": true,
          "name": "_author",
          "type": "address"
        }
      ],
      "name": "createPost",
      "type": "function",
      "constant": false,
      "outputs": [
        {
          "name": "",
          "type": "uint256"
        }
      ],
      "payable": true,
      "stateMutability": "payable"
    },
    {
      "constant": true,
      "inputs": [
        {
          "name": "_text",
          "type": "string"
        }
      ],
      "name": "getTopTenPosts",
      "outputs": [
        {
          "name": "",
          "type": "tuple[]",
          "components": [
            {
              "name": "text",
              "type": "string"
            },
            {
              "name": "id",
              "type": "uint256"
            },
            {
              "name": "price",
              "type": "uint256"
            },
            {
              "name": "timestamp",
              "type": "uint256"
            },
            {
              "name": "author",
              "type": "address"
            }
          ]
        }
      ],
      "payable": false,
      "stateMutability": "view",
      "type": "function"
    },
    {
      "constant": true,
      "inputs": [
        {
          "name": "_count",
          "type": "uint256"
        },
        {
          "name": "_offset",
          "type": "uint256"
        }
      ],
      "name": "getPosts",
      "outputs": [
        {
          "components": [
            {
              "name": "text",
              "type": "string"
            },
            {
              "name": "id",
              "type": "uint256"
            },
            {
              "name": "price",
              "type": "uint256"
            },
            {
              "name": "timestamp",
              "type": "uint256"
            },
            {
              "name": "author",
              "type": "address"
            }
          ],
          "name": "",
          "type": "tuple[]"
        }
      ],
      "payable": false,
      "stateMutability": "view",
      "type": "function"
    },
    {
      "constant": true,
      "inputs": [],
      "name": "getTopTenIds",
      "outputs": [
        {
          "name": "",
          "type": "uint256[]"
        }
      ],
      "payable": false,
      "stateMutability": "view",
      "type": "function"
    },
    {
      "constant": true,
      "inputs": [],
      "name": "getAmount",
      "outputs": [
        {
          "name": "",
          "type": "uint256"
        }
      ],
      "payable": false,
      "stateMutability": "view",
      "type": "function"
    },
    {
      "constant": false,
      "inputs": [],
      "name": "widthdraw",
      "outputs": [],
      "payable": false,
      "stateMutability": "nonpayable",
      "type": "function"
    }
  ],
  "bytecode": "0x608060405234801561001057600080fd5b50336000806101000a81548173ffffffffffffffffffffffffffffffffffffffff021916908373ffffffffffffffffffffffffffffffffffffffff16021790555060006001819055506111e1806100686000396000f3fe608060405260043610610083576000357c0100000000000000000000000000000000000000000000000000000000900463ffffffff1680630b1e7f83146100885780634ffd1be6146100c957806352b50a2a14610106578063c7303c611461011d578063c9494bf11461014d578063d321fe2914610178578063dd30d696146101a3575b600080fd5b34801561009457600080fd5b506100af60048036036100aa9190810190610cc1565b6101ce565b6040516100c0959493929190610fc0565b60405180910390f35b3480156100d557600080fd5b506100f060048036036100eb9190810190610cea565b6102cb565b6040516100fd9190610f4c565b60405180910390f35b34801561011257600080fd5b5061011b6104a6565b005b61013760048036036101329190810190610c80565b610599565b604051610144919061103a565b60405180910390f35b34801561015957600080fd5b50610162610720565b60405161016f9190610f6e565b60405180910390f35b34801561018457600080fd5b5061018d6107c9565b60405161019a919061103a565b60405180910390f35b3480156101af57600080fd5b506101b86107d3565b6040516101c59190610f4c565b60405180910390f35b6002818154811015156101dd57fe5b9060005260206000209060050201600091509050806000018054600181600116156101000203166002900480601f0160208091040260200160405190810160405280929190818152602001828054600181600116156101000203166002900480156102895780601f1061025e57610100808354040283529160200191610289565b820191906000526020600020905b81548152906001019060200180831161026c57829003601f168201915b5050505050908060010154908060020154908060030154908060040160009054906101000a900473ffffffffffffffffffffffffffffffffffffffff16905085565b6060808360405190808252806020026020018201604052801561030857816020015b6102f5610ae5565b8152602001906001900390816102ed5790505b509050600080905060008490505b85850181101561049d576002805490508110156104905760028181548110151561033c57fe5b906000526020600020906005020160a06040519081016040529081600082018054600181600116156101000203166002900480601f0160208091040260200160405190810160405280929190818152602001828054600181600116156101000203166002900480156103ef5780601f106103c4576101008083540402835291602001916103ef565b820191906000526020600020905b8154815290600101906020018083116103d257829003601f168201915b505050505081526020016001820154815260200160028201548152602001600382015481526020016004820160009054906101000a900473ffffffffffffffffffffffffffffffffffffffff1673ffffffffffffffffffffffffffffffffffffffff1673ffffffffffffffffffffffffffffffffffffffff1681525050838381518110151561047a57fe5b9060200190602002018190525081806001019250505b8080600101915050610316565b50505092915050565b6000809054906101000a900473ffffffffffffffffffffffffffffffffffffffff1673ffffffffffffffffffffffffffffffffffffffff163373ffffffffffffffffffffffffffffffffffffffff16141515610537576040517f08c379a000000000000000000000000000000000000000000000000000000000815260040161052e9061101a565b60405180910390fd5b3073ffffffffffffffffffffffffffffffffffffffff163173ffffffffffffffffffffffffffffffffffffffff166108fc6001549081150290604051600060405180830381858888f19350505050158015610596573d6000803e3d6000fd5b50565b6000806001600260a060405190810160405280868152602001600081526020013481526020014281526020013373ffffffffffffffffffffffffffffffffffffffff16815250908060018154018082558091505090600182039060005260206000209060050201600090919290919091506000820151816000019080519060200190610626929190610b2b565b5060208201518160010155604082015181600201556060820151816003015560808201518160040160006101000a81548173ffffffffffffffffffffffffffffffffffffffff021916908373ffffffffffffffffffffffffffffffffffffffff1602179055505050039050806002828154811015156106a157fe5b906000526020600020906005020160010181905550346001600082825401925050819055503373ffffffffffffffffffffffffffffffffffffffff16817f81d3adda78501c6f82b6407cd5230e45ed8a4030b65f4a2f14118d5bd338bf21853460405161070f929190610f90565b60405180910390a380915050919050565b60608061072b610878565b90506060600a60405190808252806020026020018201604052801561075f5781602001602082028038833980820191505090505b50905060008090505b600a8110156107c05782518110156107b357828181518110151561078857fe5b906020019060200201516020015182828151811015156107a457fe5b90602001906020020181815250505b8080600101915050610768565b50809250505090565b6000600154905090565b6060806107de610878565b90506060600a60405190808252806020026020018201604052801561081d57816020015b61080a610ae5565b8152602001906001900390816108025790505b50905060008090505b600a81101561086f57828181518110151561083d57fe5b90602001906020020151828281518110151561085557fe5b906020019060200201819052508080600101915050610826565b50809250505090565b6060806002805480602002602001604051908101604052809291908181526020016000905b828210156109e6578382906000526020600020906005020160a06040519081016040529081600082018054600181600116156101000203166002900480601f01602080910402602001604051908101604052809291908181526020018280546001816001161561010002031660029004801561095a5780601f1061092f5761010080835404028352916020019161095a565b820191906000526020600020905b81548152906001019060200180831161093d57829003601f168201915b505050505081526020016001820154815260200160028201548152602001600382015481526020016004820160009054906101000a900473ffffffffffffffffffffffffffffffffffffffff1673ffffffffffffffffffffffffffffffffffffffff1673ffffffffffffffffffffffffffffffffffffffff16815250508152602001906001019061089d565b5050505090506109f4610bab565b60008090505b8015610adc57600190506000600190505b8351811015610ad6578381815181101515610a2257fe5b90602001906020020151604001518460018303815181101515610a4157fe5b90602001906020020151604001511015610ac9578360018203815181101515610a6657fe5b9060200190602002015192508381815181101515610a8057fe5b906020019060200201518460018303815181101515610a9b57fe5b90602001906020020181905250828482815181101515610ab757fe5b90602001906020020181905250600091505b8080600101915050610a0b565b506109fa565b82935050505090565b60a06040519081016040528060608152602001600081526020016000815260200160008152602001600073ffffffffffffffffffffffffffffffffffffffff1681525090565b828054600181600116156101000203166002900490600052602060002090601f016020900481019282601f10610b6c57805160ff1916838001178555610b9a565b82800160010185558215610b9a579182015b82811115610b99578251825591602001919060010190610b7e565b5b509050610ba79190610bf1565b5090565b60a06040519081016040528060608152602001600081526020016000815260200160008152602001600073ffffffffffffffffffffffffffffffffffffffff1681525090565b610c1391905b80821115610c0f576000816000905550600101610bf7565b5090565b90565b600082601f8301121515610c2957600080fd5b8135610c3c610c3782611082565b611055565b91508082526020830160208301858383011115610c5857600080fd5b610c63838284611154565b50505092915050565b6000610c78823561114a565b905092915050565b600060208284031215610c9257600080fd5b600082013567ffffffffffffffff811115610cac57600080fd5b610cb884828501610c16565b91505092915050565b600060208284031215610cd357600080fd5b6000610ce184828501610c6c565b91505092915050565b60008060408385031215610cfd57600080fd5b6000610d0b85828601610c6c565b9250506020610d1c85828601610c6c565b9150509250929050565b610d2f8161110e565b82525050565b6000610d40826110c8565b80845260208401935083602082028501610d59856110ae565b60005b84811015610d92578383038852610d74838351610ec7565b9250610d7f826110f4565b9150602088019750600181019050610d5c565b508196508694505050505092915050565b6000610dae826110d3565b808452602084019350610dc0836110bb565b60005b82811015610df257610dd6868351610f3d565b610ddf82611101565b9150602086019550600181019050610dc3565b50849250505092915050565b6000610e09826110e9565b808452610e1d816020860160208601611163565b610e2681611196565b602085010191505092915050565b6000610e3f826110de565b808452610e53816020860160208601611163565b610e5c81611196565b602085010191505092915050565b6000602f82527f4f6e6c79206f776e65722063616e207769746864726177206d6f6e657920667260208301527f6f6d2074686520636f6e747261637400000000000000000000000000000000006040830152606082019050919050565b600060a0830160008301518482036000860152610ee48282610e34565b9150506020830151610ef96020860182610f3d565b506040830151610f0c6040860182610f3d565b506060830151610f1f6060860182610f3d565b506080830151610f326080860182610d26565b508091505092915050565b610f4681611140565b82525050565b60006020820190508181036000830152610f668184610d35565b905092915050565b60006020820190508181036000830152610f888184610da3565b905092915050565b60006040820190508181036000830152610faa8185610dfe565b9050610fb96020830184610f3d565b9392505050565b600060a0820190508181036000830152610fda8188610e34565b9050610fe96020830187610f3d565b610ff66040830186610f3d565b6110036060830185610f3d565b6110106080830184610d26565b9695505050505050565b6000602082019050818103600083015261103381610e6a565b9050919050565b600060208201905061104f6000830184610f3d565b92915050565b6000604051905081810181811067ffffffffffffffff8211171561107857600080fd5b8060405250919050565b600067ffffffffffffffff82111561109957600080fd5b601f19601f8301169050602081019050919050565b6000602082019050919050565b6000602082019050919050565b600081519050919050565b600081519050919050565b600081519050919050565b600081519050919050565b6000602082019050919050565b6000602082019050919050565b600061111982611120565b9050919050565b600073ffffffffffffffffffffffffffffffffffffffff82169050919050565b6000819050919050565b6000819050919050565b82818337600083830152505050565b60005b83811015611181578082015181840152602081019050611166565b83811115611190576000848401525b50505050565b6000601f19601f830116905091905056fea265627a7a723058203900774ba80f027612556149f1eaece4531b7557caf367bdc227e02afb2a26436c6578706572696d656e74616cf50037",
  "source": "pragma solidity >=0.4.25 <0.6.0;\r\npragma experimental ABIEncoderV2;\r\n\r\n// This is just a simple example of a coin-like contract.\r\n// It is not standards compatible and cannot be expected to talk to other\r\n// coin/token contracts. If you want to create a standards-compliant\r\n// token, see: https://github.com/ConsenSys/Tokens. Cheers!\r\n\r\ncontract EthTop {\r\n\taddress owner;\r\n\tuint amount; // деньги на контракте\r\n\r\n\t// описывает один пост\r\n\tstruct Post {\r\n\t\tstring text; // содержание поста\r\n\t\tuint id; //  уникальный id ( тупо индекс будет )\r\n\t\tuint price; // сколько бабок заплачено - по нему сортируем\r\n\t\tuint timestamp; // когда был создан пост\r\n\t\taddress author; // да\r\n\t}\r\n\r\n  \t// массив для хранения постов\r\n\tPost[] public posts;\r\n\r\n\tconstructor() public {\r\n\t\towner = msg.sender;\r\n\t\tamount = 0;\r\n\t}\r\n\r\n\t// пост создан\r\n\tevent PostCreated(string _text, uint indexed _id, uint _price, address indexed _author);\r\n\r\n\tfunction createPost(string memory _text) public payable returns (uint){\r\n\t\tuint id = posts.push(\r\n\t\t\tPost(\r\n\t\t\t\t_text,\r\n\t\t\t\t0,\r\n\t\t\t\tmsg.value,\r\n\t\t\t\tnow,\r\n\t\t\t\tmsg.sender\r\n\t\t\t)\r\n\t\t) - 1;\r\n\t\tposts[id].id = id;\r\n\t\tamount += msg.value;\r\n\t\temit PostCreated(_text, id, msg.value, msg.sender);\r\n\t\treturn id;\r\n\t}\r\n\r\n\tfunction sortByPrice() private view returns (Post[] memory) {\r\n\t\tPost[] memory sortedPosts = posts;\r\n\t\tPost memory tmpPost;\r\n\t\tbool flag = false;\r\n\t\twhile(flag) {\r\n\t\t\tflag = true;\r\n\t\t\tfor( uint i = 1; i < sortedPosts.length; i++ ) {\r\n\t\t\t\tif( sortedPosts[i-1].price < sortedPosts[i].price ) {\r\n\t\t\t\t\ttmpPost = sortedPosts[i-1];\r\n\t\t\t\t\tsortedPosts[i-1] = sortedPosts[i];\r\n\t\t\t\t\tsortedPosts[i] = tmpPost;\r\n\t\t\t\t\tflag = false;\r\n\t\t\t\t}\r\n\t\t\t}\r\n\t\t}\r\n\t\treturn sortedPosts;\r\n\t}\r\n\r\n\tfunction getTopTenPosts() external view returns (Post[] memory) {\r\n\t\tPost[] memory sortedPosts = sortByPrice();\r\n\t\tPost[] memory topTen = new Post[] (10);\r\n\r\n\t\tfor( uint i = 0; i < 10; i++) {\r\n\t\t\ttopTen[i] = sortedPosts[i];\r\n\t\t}\r\n\t\treturn topTen;\r\n\t}\r\n\r\n\tfunction getPosts(uint _count, uint _offset) external view returns( Post[] memory) {\r\n\t\tPost[] memory result = new Post[] ( _count);\r\n\t\tuint counter = 0;\r\n\t\tfor( uint i = _offset; i < _offset + _count ; i++ ) {\r\n\t\t\tif( i < posts.length) {\r\n\t\t\t\tresult[counter] = posts[i];\r\n\t\t\t\tcounter++;\r\n\t\t\t}\r\n\t\t}\r\n\t}\r\n\r\n\tfunction getTopTenIds() external view returns ( uint[] memory ) {\r\n\t\tPost[] memory sortedPosts = sortByPrice();\r\n\t\tuint[] memory topTen = new uint[] (10);\r\n\r\n\t\tfor( uint i = 0; i < 10; i++) {\r\n\t\t\tif( i < sortedPosts.length ) {\r\n\t\t\t\ttopTen[i] = sortedPosts[i].id;\r\n\t\t\t}\r\n\t\t}\r\n\t\treturn topTen;\r\n\t}\r\n\r\n\tfunction getAmount() public view returns (uint) {\r\n\t\treturn amount;\r\n\t}\r\n\r\n\tfunction widthdraw() public {\r\n\t\trequire(msg.sender == owner, \"Only owner can withdraw money from the contract\");\r\n\t\taddress(uint160(address(this).balance)).transfer(amount);\r\n\t}\r\n}\r\n",
  "sourcePath": "D:/Github/eth4top/smart-contract/contracts/EthTop.sol",
  "compiler": {
    "name": "solc",
    "version": "0.5.0+commit.1d4f565a.Emscripten.clang"
  },
  "schemaVersion": "3.0.9",
  "updatedAt": "2019-05-20T12:38:16.343Z",
  "devdoc": {
    "methods": {}
  },
  "userdoc": {
    "methods": {}
  }
}