{
  "contractName": "EthTop",
  "abi": [
    {
      "constant": true,
      "inputs": [
        {
          "name": "",
          "type": "uint256"
        }
      ],
      "name": "posts",
      "outputs": [
        {
          "name": "text",
          "type": "string"
        },
        {
          "name": "id",
          "type": "uint256"
        },
        {
          "name": "price",
          "type": "uint256"
        },
        {
          "name": "timestamp",
          "type": "uint256"
        },
        {
          "name": "author",
          "type": "address"
        }
      ],
      "payable": false,
      "stateMutability": "view",
      "type": "function"
    },
    {
      "inputs": [],
      "payable": false,
      "stateMutability": "nonpayable",
      "type": "constructor"
    },
    {
      "anonymous": false,
      "inputs": [
        {
          "indexed": false,
          "name": "_text",
          "type": "string"
        },
        {
          "indexed": true,
          "name": "_id",
          "type": "uint256"
        },
        {
          "indexed": false,
          "name": "_price",
          "type": "uint256"
        },
        {
          "indexed": true,
          "name": "_author",
          "type": "address"
        }
      ],
      "name": "PostCreated",
      "type": "event"
    },
    {
      "constant": false,
      "inputs": [
        {
          "name": "_text",
          "type": "string"
        }
      ],
      "name": "createPost",
      "outputs": [
        {
          "name": "",
          "type": "uint256"
        }
      ],
      "payable": true,
      "stateMutability": "payable",
      "type": "function"
    },
    {
      "constant": true,
      "inputs": [
        {
          "name": "page",
          "type": "uint256"
        }
      ],
      "name": "getTenPosts",
      "outputs": [
        {
          "name": "ids",
          "type": "uint256[10]"
        },
        {
          "name": "texts",
          "type": "string[10]"
        },
        {
          "name": "prices",
          "type": "uint256[10]"
        },
        {
          "name": "timestamps",
          "type": "uint256[10]"
        },
        {
          "name": "authors",
          "type": "address[10]"
        }
      ],
      "payable": false,
      "stateMutability": "view",
      "type": "function"
    },
    {
      "constant": true,
      "inputs": [],
      "name": "getAmount",
      "outputs": [
        {
          "name": "",
          "type": "uint256"
        }
      ],
      "payable": false,
      "stateMutability": "view",
      "type": "function"
    },
    {
      "constant": false,
      "inputs": [],
      "name": "widthdraw",
      "outputs": [],
      "payable": false,
      "stateMutability": "nonpayable",
      "type": "function"
    },
    {
      "constant": false,
      "inputs": [
        {
          "name": "myFriend",
          "type": "address"
        }
      ],
      "name": "widthdraw",
      "outputs": [],
      "payable": false,
      "stateMutability": "nonpayable",
      "type": "function"
    },
    {
      "constant": false,
      "inputs": [],
      "name": "deletePosts",
      "outputs": [],
      "payable": false,
      "stateMutability": "nonpayable",
      "type": "function"
    }
  ],
  "bytecode": "0x608060405234801561001057600080fd5b50336000806101000a81548173ffffffffffffffffffffffffffffffffffffffff021916908373ffffffffffffffffffffffffffffffffffffffff160217905550600060018190555061123e806100686000396000f3fe608060405260043610610083576000357c0100000000000000000000000000000000000000000000000000000000900463ffffffff1680630b1e7f83146100885780633d31371d146100c957806352b50a2a1461010a578063662a97d4146101215780638a4d613614610138578063c7303c6114610161578063d321fe2914610191575b600080fd5b34801561009457600080fd5b506100af60048036036100aa9190810190610d55565b6101bc565b6040516100c0959493929190610fef565b60405180910390f35b3480156100d557600080fd5b506100f060048036036100eb9190810190610d55565b6102b9565b604051610101959493929190610f60565b60405180910390f35b34801561011657600080fd5b5061011f61046f565b005b34801561012d57600080fd5b5061013661054b565b005b34801561014457600080fd5b5061015f600480360361015a9190810190610ceb565b61055b565b005b61017b60048036036101769190810190610d14565b610638565b6040516101889190611069565b60405180910390f35b34801561019d57600080fd5b506101a66107bf565b6040516101b39190611069565b60405180910390f35b6002818154811015156101cb57fe5b9060005260206000209060050201600091509050806000018054600181600116156101000203166002900480601f0160208091040260200160405190810160405280929190818152602001828054600181600116156101000203166002900480156102775780601f1061024c57610100808354040283529160200191610277565b820191906000526020600020905b81548152906001019060200180831161025a57829003601f168201915b5050505050908060010154908060020154908060030154908060040160009054906101000a900473ffffffffffffffffffffffffffffffffffffffff16905085565b6102c1610a37565b6102c9610a5b565b6102d1610a37565b6102d9610a37565b6102e1610a84565b60606102eb6107c9565b905060008090506000600a60018a030290505b600a890281101561045457825181101561043f57828181518110151561032057fe5b90602001906020020151602001518883600a8110151561033c57fe5b602002018181525050828181518110151561035357fe5b90602001906020020151600001518783600a8110151561036f57fe5b6020020181905250828181518110151561038557fe5b90602001906020020151604001518683600a811015156103a157fe5b60200201818152505082818151811015156103b857fe5b90602001906020020151606001518583600a811015156103d457fe5b60200201818152505082818151811015156103eb57fe5b90602001906020020151608001518483600a8110151561040757fe5b602002019073ffffffffffffffffffffffffffffffffffffffff16908173ffffffffffffffffffffffffffffffffffffffff16815250505b818060010192505080806001019150506102fe565b50868686868696509650965096509650505091939590929450565b6000809054906101000a900473ffffffffffffffffffffffffffffffffffffffff1673ffffffffffffffffffffffffffffffffffffffff163373ffffffffffffffffffffffffffffffffffffffff16141515610500576040517f08c379a00000000000000000000000000000000000000000000000000000000081526004016104f790611049565b60405180910390fd5b3373ffffffffffffffffffffffffffffffffffffffff166108fc6001549081150290604051600060405180830381858888f19350505050158015610548573d6000803e3d6000fd5b50565b600260006105599190610aa8565b565b6000809054906101000a900473ffffffffffffffffffffffffffffffffffffffff1673ffffffffffffffffffffffffffffffffffffffff163373ffffffffffffffffffffffffffffffffffffffff161415156105ec576040517f08c379a00000000000000000000000000000000000000000000000000000000081526004016105e390611049565b60405180910390fd5b8073ffffffffffffffffffffffffffffffffffffffff166108fc6001549081150290604051600060405180830381858888f19350505050158015610634573d6000803e3d6000fd5b5050565b6000806001600260a060405190810160405280868152602001600081526020013481526020014281526020013373ffffffffffffffffffffffffffffffffffffffff168152509080600181540180825580915050906001820390600052602060002090600502016000909192909190915060008201518160000190805190602001906106c5929190610acc565b5060208201518160010155604082015181600201556060820151816003015560808201518160040160006101000a81548173ffffffffffffffffffffffffffffffffffffffff021916908373ffffffffffffffffffffffffffffffffffffffff16021790555050500390508060028281548110151561074057fe5b906000526020600020906005020160010181905550346001600082825401925050819055503373ffffffffffffffffffffffffffffffffffffffff16817f81d3adda78501c6f82b6407cd5230e45ed8a4030b65f4a2f14118d5bd338bf2185346040516107ae929190610fbf565b60405180910390a380915050919050565b6000600154905090565b6060806002805480602002602001604051908101604052809291908181526020016000905b82821015610937578382906000526020600020906005020160a06040519081016040529081600082018054600181600116156101000203166002900480601f0160208091040260200160405190810160405280929190818152602001828054600181600116156101000203166002900480156108ab5780601f10610880576101008083540402835291602001916108ab565b820191906000526020600020905b81548152906001019060200180831161088e57829003601f168201915b505050505081526020016001820154815260200160028201548152602001600382015481526020016004820160009054906101000a900473ffffffffffffffffffffffffffffffffffffffff1673ffffffffffffffffffffffffffffffffffffffff1673ffffffffffffffffffffffffffffffffffffffff1681525050815260200190600101906107ee565b505050509050610945610b4c565b6000600190505b8015610a2e57600090506000600190505b8351811015610a2857838181518110151561097457fe5b9060200190602002015160400151846001830381518110151561099357fe5b90602001906020020151604001511015610a1b5783600182038151811015156109b857fe5b90602001906020020151925083818151811015156109d257fe5b9060200190602002015184600183038151811015156109ed57fe5b90602001906020020181905250828482815181101515610a0957fe5b90602001906020020181905250600191505b808060010191505061095d565b5061094c565b82935050505090565b61014060405190810160405280600a90602082028038833980820191505090505090565b61014060405190810160405280600a905b6060815260200190600190039081610a6c5790505090565b61014060405190810160405280600a90602082028038833980820191505090505090565b5080546000825560050290600052602060002090810190610ac99190610b92565b50565b828054600181600116156101000203166002900490600052602060002090601f016020900481019282601f10610b0d57805160ff1916838001178555610b3b565b82800160010185558215610b3b579182015b82811115610b3a578251825591602001919060010190610b1f565b5b509050610b489190610c00565b5090565b60a06040519081016040528060608152602001600081526020016000815260200160008152602001600073ffffffffffffffffffffffffffffffffffffffff1681525090565b610bfd91905b80821115610bf95760008082016000610bb19190610c25565b6001820160009055600282016000905560038201600090556004820160006101000a81549073ffffffffffffffffffffffffffffffffffffffff021916905550600501610b98565b5090565b90565b610c2291905b80821115610c1e576000816000905550600101610c06565b5090565b90565b50805460018160011615610100020316600290046000825580601f10610c4b5750610c6a565b601f016020900490600052602060002090810190610c699190610c00565b5b50565b6000610c798235611195565b905092915050565b600082601f8301121515610c9457600080fd5b8135610ca7610ca2826110b1565b611084565b91508082526020830160208301858383011115610cc357600080fd5b610cce8382846111b1565b50505092915050565b6000610ce382356111a7565b905092915050565b600060208284031215610cfd57600080fd5b6000610d0b84828501610c6d565b91505092915050565b600060208284031215610d2657600080fd5b600082013567ffffffffffffffff811115610d4057600080fd5b610d4c84828501610c81565b91505092915050565b600060208284031215610d6757600080fd5b6000610d7584828501610cd7565b91505092915050565b610d8781611159565b82525050565b610d96816110fb565b610d9f826110dd565b60005b82811015610dd157610db5858351610d7e565b610dbe82611132565b9150602085019450600181019050610da2565b5050505050565b6000610de382611106565b83602082028501610df3856110e7565b60005b84811015610e2c578383038852610e0e838351610ebe565b9250610e198261113f565b9150602088019750600181019050610df6565b508196508694505050505092915050565b610e4681611111565b610e4f826110f1565b60005b82811015610e8157610e65858351610f51565b610e6e8261114c565b9150602085019450600181019050610e52565b5050505050565b6000610e9382611127565b808452610ea78160208601602086016111c0565b610eb0816111f3565b602085010191505092915050565b6000610ec98261111c565b808452610edd8160208601602086016111c0565b610ee6816111f3565b602085010191505092915050565b6000602f82527f4f6e6c79206f776e65722063616e207769746864726177206d6f6e657920667260208301527f6f6d2074686520636f6e747261637400000000000000000000000000000000006040830152606082019050919050565b610f5a8161118b565b82525050565b600061052082019050610f766000830188610e3d565b818103610140830152610f898187610dd8565b9050610f99610160830186610e3d565b610fa76102a0830185610e3d565b610fb56103e0830184610d8d565b9695505050505050565b60006040820190508181036000830152610fd98185610e88565b9050610fe86020830184610f51565b9392505050565b600060a08201905081810360008301526110098188610ebe565b90506110186020830187610f51565b6110256040830186610f51565b6110326060830185610f51565b61103f6080830184610d7e565b9695505050505050565b6000602082019050818103600083015261106281610ef4565b9050919050565b600060208201905061107e6000830184610f51565b92915050565b6000604051905081810181811067ffffffffffffffff821117156110a757600080fd5b8060405250919050565b600067ffffffffffffffff8211156110c857600080fd5b601f19601f8301169050602081019050919050565b6000819050919050565b6000819050919050565b6000819050919050565b6000600a9050919050565b6000600a9050919050565b6000600a9050919050565b600081519050919050565b600081519050919050565b6000602082019050919050565b6000602082019050919050565b6000602082019050919050565b60006111648261116b565b9050919050565b600073ffffffffffffffffffffffffffffffffffffffff82169050919050565b6000819050919050565b60006111a08261116b565b9050919050565b6000819050919050565b82818337600083830152505050565b60005b838110156111de5780820151818401526020810190506111c3565b838111156111ed576000848401525b50505050565b6000601f19601f830116905091905056fea265627a7a72305820aea8a69f769b941f4684729bfdedcbcfa3e371d20c8214a7ad36dfe26319928d6c6578706572696d656e74616cf50037",
  "source": "pragma solidity >=0.4.25 <0.6.0;\npragma experimental ABIEncoderV2;\n// This is just a simple example of a coin-like contract.\n// It is not standards compatible and cannot be expected to talk to other\n// coin/token contracts. If you want to create a standards-compliant\n// token, see: https://github.com/ConsenSys/Tokens. Cheers!\n\ncontract EthTop {\n\taddress owner;\n\tuint private amount; // деньги на контракте\n\n\t// описывает один пост\n\tstruct Post {\n\t\tstring text; // содержание поста\n\t\tuint id; //  уникальный id ( тупо индекс будет )\n\t\tuint price; // сколько бабок заплачено - по нему сортируем\n\t\tuint timestamp; // когда был создан пост\n\t\taddress author; // да\n\t}\n\n  // массив для хранения постов\n\tPost[] public posts;\n\n\tconstructor() public {\n\t\towner = msg.sender;\n\t\tamount = 0;\n\t}\n\n\t// событие создания поста\n\tevent PostCreated(string _text, uint indexed _id, uint _price, address indexed _author);\n\n\tfunction createPost(string memory _text) public payable returns (uint){\n\t\tuint id = posts.push(\n\t\t\tPost(\n\t\t\t\t_text,\n\t\t\t\t0,\n\t\t\t\tmsg.value,\n\t\t\t\tnow,\n\t\t\t\tmsg.sender\n\t\t\t)\n\t\t) - 1;\n\t\tposts[id].id = id;\n\t\tamount += msg.value;\n\t\temit PostCreated(_text, id, msg.value, msg.sender);\n\t\treturn id;\n\t}\n\n\tfunction sortByPrice() private view returns (Post[] memory) {\n\t\tPost[] memory sortedPosts = posts;\n\t\tPost memory tmpPost;\n\t\tbool flag = true;\n\t\twhile(flag) {\n\t\t\tflag = false;\n\t\t\tfor( uint i = 1; i < sortedPosts.length; i++ ) {\n\t\t\t\tif( sortedPosts[i-1].price < sortedPosts[i].price ) {\n\t\t\t\t\ttmpPost = sortedPosts[i-1];\n\t\t\t\t\tsortedPosts[i-1] = sortedPosts[i];\n\t\t\t\t\tsortedPosts[i] = tmpPost;\n\t\t\t\t\tflag = true;\n\t\t\t\t}\n\t\t\t}\n\t\t}\n\t\treturn sortedPosts;\n\t}\n\n\tfunction getTenPosts(uint page)\n\t\texternal\n\t\tview\n\t\treturns(\n\t\t\tuint[10] memory ids,\n\t\t\tstring[10] memory texts,\n\t\t\tuint[10] memory prices,\n\t\t\tuint[10] memory timestamps,\n\t\t\taddress[10] memory authors\n\t\t) {\n\t\t\tPost[] memory sortedPosts = sortByPrice();\n\t\t\tuint index = 0;\n\t\t\tfor( uint i = (page - 1) * 10; i < page * 10; i++) {\n\t\t\t\tif( i < sortedPosts.length ) {\n\t\t\t\t\tids[index] = sortedPosts[i].id;\n\t\t\t\t\ttexts[index] = sortedPosts[i].text;\n\t\t\t\t\tprices[index] = sortedPosts[i].price;\n\t\t\t\t\ttimestamps[index] = sortedPosts[i].timestamp;\n\t\t\t\t\tauthors[index] = sortedPosts[i].author;\n\t\t\t\t}\n\t\t\t\tindex++;\n\t\t\t}\n\t\t\treturn (ids,texts,prices,timestamps,authors);\n\t\t}\n\n\tfunction getAmount() public view returns (uint) {\n\t\treturn amount;\n\t}\n\n\tfunction widthdraw() public {\n\t\trequire(msg.sender == owner, \"Only owner can withdraw money from the contract\");\n\t\tmsg.sender.transfer(amount);\n\t}\n\n\tfunction widthdraw(address payable myFriend) public {\n\t\trequire(msg.sender == owner, \"Only owner can withdraw money from the contract\");\n\t\tmyFriend.transfer(amount);\n\t}\n\n\tfunction deletePosts() public {\n\t\tdelete posts;\n\t}\n}\n",
  "sourcePath": "/Users/pavelbelakov/Documents/GitHub/eth4top/smart-contract/contracts/EthTop.sol",
  "compiler": {
    "name": "solc",
    "version": "0.5.0+commit.1d4f565a.Emscripten.clang"
  },
  "schemaVersion": "3.0.2",
  "updatedAt": "2019-07-23T17:39:42.301Z",
  "devdoc": {
    "methods": {}
  },
  "userdoc": {
    "methods": {}
  }
}