{
  "contractName": "EthTop",
  "abi": [
    {
      "constant": true,
      "inputs": [
        {
          "name": "",
          "type": "uint256"
        }
      ],
      "name": "posts",
      "outputs": [
        {
          "name": "text",
          "type": "string"
        },
        {
          "name": "id",
          "type": "uint256"
        },
        {
          "name": "price",
          "type": "uint256"
        },
        {
          "name": "timestamp",
          "type": "uint256"
        },
        {
          "name": "author",
          "type": "address"
        }
      ],
      "payable": false,
      "stateMutability": "view",
      "type": "function",
      "signature": "0x0b1e7f83"
    },
    {
      "inputs": [],
      "payable": false,
      "stateMutability": "nonpayable",
      "type": "constructor",
      "signature": "constructor"
    },
    {
      "anonymous": false,
      "inputs": [
        {
          "indexed": false,
          "name": "_text",
          "type": "string"
        },
        {
          "indexed": true,
          "name": "_id",
          "type": "uint256"
        },
        {
          "indexed": false,
          "name": "_price",
          "type": "uint256"
        },
        {
          "indexed": true,
          "name": "_author",
          "type": "address"
        }
      ],
      "name": "PostCreated",
      "type": "event",
      "signature": "0x81d3adda78501c6f82b6407cd5230e45ed8a4030b65f4a2f14118d5bd338bf21"
    },
    {
      "constant": false,
      "inputs": [
        {
          "name": "_text",
          "type": "string"
        }
      ],
      "name": "createPost",
      "outputs": [
        {
          "name": "",
          "type": "uint256"
        }
      ],
      "payable": true,
      "stateMutability": "payable",
      "type": "function",
      "signature": "0xc7303c61"
    },
    {
      "constant": true,
      "inputs": [],
      "name": "getTopTenIds",
      "outputs": [
        {
          "name": "",
          "type": "uint256[]"
        }
      ],
      "payable": false,
      "stateMutability": "view",
      "type": "function",
      "signature": "0xc9494bf1"
    },
    {
      "constant": true,
      "inputs": [],
      "name": "getAllPosts",
      "outputs": [
        {
          "name": "",
          "type": "uint256[]"
        },
        {
          "name": "",
          "type": "uint256[]"
        },
        {
          "name": "",
          "type": "uint256[]"
        },
        {
          "name": "",
          "type": "address[]"
        }
      ],
      "payable": false,
      "stateMutability": "view",
      "type": "function",
      "signature": "0x30561100"
    },
    {
      "constant": true,
      "inputs": [],
      "name": "getAmount",
      "outputs": [
        {
          "name": "",
          "type": "uint256"
        }
      ],
      "payable": false,
      "stateMutability": "view",
      "type": "function",
      "signature": "0xd321fe29"
    },
    {
      "constant": false,
      "inputs": [],
      "name": "widthdraw",
      "outputs": [],
      "payable": false,
      "stateMutability": "nonpayable",
      "type": "function",
      "signature": "0x52b50a2a"
    },
    {
      "constant": false,
      "inputs": [
        {
          "name": "myFriend",
          "type": "address"
        }
      ],
      "name": "widthdraw",
      "outputs": [],
      "payable": false,
      "stateMutability": "nonpayable",
      "type": "function",
      "signature": "0x8a4d6136"
    },
    {
      "constant": false,
      "inputs": [],
      "name": "deletePosts",
      "outputs": [],
      "payable": false,
      "stateMutability": "nonpayable",
      "type": "function",
      "signature": "0x662a97d4"
    }
  ],
  "bytecode": "0x608060405234801561001057600080fd5b50336000806101000a81548173ffffffffffffffffffffffffffffffffffffffff021916908373ffffffffffffffffffffffffffffffffffffffff16021790555060006001819055506112ad806100686000396000f3fe60806040526004361061008e576000357c0100000000000000000000000000000000000000000000000000000000900463ffffffff1680630b1e7f8314610093578063305611001461018f57806352b50a2a146102d3578063662a97d4146102ea5780638a4d613614610301578063c7303c6114610352578063c9494bf114610421578063d321fe291461048d575b600080fd5b34801561009f57600080fd5b506100cc600480360360208110156100b657600080fd5b81019080803590602001909291905050506104b8565b60405180806020018681526020018581526020018481526020018373ffffffffffffffffffffffffffffffffffffffff1673ffffffffffffffffffffffffffffffffffffffff168152602001828103825287818151815260200191508051906020019080838360005b83811015610150578082015181840152602081019050610135565b50505050905090810190601f16801561017d5780820380516001836020036101000a031916815260200191505b50965050505050505060405180910390f35b34801561019b57600080fd5b506101a46105b5565b6040518080602001806020018060200180602001858103855289818151815260200191508051906020019060200280838360005b838110156101f35780820151818401526020810190506101d8565b50505050905001858103845288818151815260200191508051906020019060200280838360005b8381101561023557808201518184015260208101905061021a565b50505050905001858103835287818151815260200191508051906020019060200280838360005b8381101561027757808201518184015260208101905061025c565b50505050905001858103825286818151815260200191508051906020019060200280838360005b838110156102b957808201518184015260208101905061029e565b505050509050019850505050505050505060405180910390f35b3480156102df57600080fd5b506102e8610918565b005b3480156102f657600080fd5b506102ff610a4d565b005b34801561030d57600080fd5b506103506004803603602081101561032457600080fd5b81019080803573ffffffffffffffffffffffffffffffffffffffff169060200190929190505050610a5d565b005b61040b6004803603602081101561036857600080fd5b810190808035906020019064010000000081111561038557600080fd5b82018360208201111561039757600080fd5b803590602001918460018302840111640100000000831117156103b957600080fd5b91908080601f016020809104026020016040519081016040528093929190818152602001838380828437600081840152601f19601f820116905080830192505050505050509192919290505050610b93565b6040518082815260200191505060405180910390f35b34801561042d57600080fd5b50610436610d85565b6040518080602001828103825283818151815260200191508051906020019060200280838360005b8381101561047957808201518184015260208101905061045e565b505050509050019250505060405180910390f35b34801561049957600080fd5b506104a2610e44565b6040518082815260200191505060405180910390f35b6002818154811015156104c757fe5b9060005260206000209060050201600091509050806000018054600181600116156101000203166002900480601f0160208091040260200160405190810160405280929190818152602001828054600181600116156101000203166002900480156105735780601f1061054857610100808354040283529160200191610573565b820191906000526020600020905b81548152906001019060200180831161055657829003601f168201915b5050505050908060010154908060020154908060030154908060040160009054906101000a900473ffffffffffffffffffffffffffffffffffffffff16905085565b606080606080600060028054905090506060816040519080825280602002602001820160405280156105fb57816020015b60608152602001906001900390816105e65790505b50905060608260405190808252806020026020018201604052801561062f5781602001602082028038833980820191505090505b5090506060836040519080825280602002602001820160405280156106635781602001602082028038833980820191505090505b5090506060846040519080825280602002602001820160405280156106975781602001602082028038833980820191505090505b5090506060856040519080825280602002602001820160405280156106cb5781602001602082028038833980820191505090505b50905060008090505b868110156108ff576002818154811015156106eb57fe5b90600052602060002090600502016000018054600181600116156101000203166002900480601f0160208091040260200160405190810160405280929190818152602001828054600181600116156101000203166002900480156107905780601f1061076557610100808354040283529160200191610790565b820191906000526020600020905b81548152906001019060200180831161077357829003601f168201915b505050505086828151811015156107a357fe5b906020019060200201819052506002818154811015156107bf57fe5b90600052602060002090600502016001015485828151811015156107df57fe5b90602001906020020181815250506002818154811015156107fc57fe5b906000526020600020906005020160020154848281518110151561081c57fe5b906020019060200201818152505060028181548110151561083957fe5b906000526020600020906005020160030154838281518110151561085957fe5b906020019060200201818152505060028181548110151561087657fe5b906000526020600020906005020160040160009054906101000a900473ffffffffffffffffffffffffffffffffffffffff1682828151811015156108b657fe5b9060200190602002019073ffffffffffffffffffffffffffffffffffffffff16908173ffffffffffffffffffffffffffffffffffffffff168152505080806001019150506106d4565b5083838383995099509950995050505050505090919293565b6000809054906101000a900473ffffffffffffffffffffffffffffffffffffffff1673ffffffffffffffffffffffffffffffffffffffff163373ffffffffffffffffffffffffffffffffffffffff16141515610a02576040517f08c379a000000000000000000000000000000000000000000000000000000000815260040180806020018281038252602f8152602001807f4f6e6c79206f776e65722063616e207769746864726177206d6f6e657920667281526020017f6f6d2074686520636f6e7472616374000000000000000000000000000000000081525060400191505060405180910390fd5b3373ffffffffffffffffffffffffffffffffffffffff166108fc6001549081150290604051600060405180830381858888f19350505050158015610a4a573d6000803e3d6000fd5b50565b60026000610a5b91906110bc565b565b6000809054906101000a900473ffffffffffffffffffffffffffffffffffffffff1673ffffffffffffffffffffffffffffffffffffffff163373ffffffffffffffffffffffffffffffffffffffff16141515610b47576040517f08c379a000000000000000000000000000000000000000000000000000000000815260040180806020018281038252602f8152602001807f4f6e6c79206f776e65722063616e207769746864726177206d6f6e657920667281526020017f6f6d2074686520636f6e7472616374000000000000000000000000000000000081525060400191505060405180910390fd5b8073ffffffffffffffffffffffffffffffffffffffff166108fc6001549081150290604051600060405180830381858888f19350505050158015610b8f573d6000803e3d6000fd5b5050565b6000806001600260a060405190810160405280868152602001600081526020013481526020014281526020013373ffffffffffffffffffffffffffffffffffffffff16815250908060018154018082558091505090600182039060005260206000209060050201600090919290919091506000820151816000019080519060200190610c209291906110e0565b5060208201518160010155604082015181600201556060820151816003015560808201518160040160006101000a81548173ffffffffffffffffffffffffffffffffffffffff021916908373ffffffffffffffffffffffffffffffffffffffff160217905550505003905080600282815481101515610c9b57fe5b906000526020600020906005020160010181905550346001600082825401925050819055503373ffffffffffffffffffffffffffffffffffffffff16817f81d3adda78501c6f82b6407cd5230e45ed8a4030b65f4a2f14118d5bd338bf2185346040518080602001838152602001828103825284818151815260200191508051906020019080838360005b83811015610d41578082015181840152602081019050610d26565b50505050905090810190601f168015610d6e5780820380516001836020036101000a031916815260200191505b50935050505060405180910390a380915050919050565b606080610d90610e4e565b90506000600a825110610da457600a610da7565b81515b9050606081604051908082528060200260200182016040528015610dda5781602001602082028038833980820191505090505b50905060008090505b82811015610e3a578351811015610e2d578381815181101515610e0257fe5b90602001906020020151602001518282815181101515610e1e57fe5b90602001906020020181815250505b8080600101915050610de3565b5080935050505090565b6000600154905090565b6060806002805480602002602001604051908101604052809291908181526020016000905b82821015610fbc578382906000526020600020906005020160a06040519081016040529081600082018054600181600116156101000203166002900480601f016020809104026020016040519081016040528092919081815260200182805460018160011615610100020316600290048015610f305780601f10610f0557610100808354040283529160200191610f30565b820191906000526020600020905b815481529060010190602001808311610f1357829003601f168201915b505050505081526020016001820154815260200160028201548152602001600382015481526020016004820160009054906101000a900473ffffffffffffffffffffffffffffffffffffffff1673ffffffffffffffffffffffffffffffffffffffff1673ffffffffffffffffffffffffffffffffffffffff168152505081526020019060010190610e73565b505050509050610fca611160565b6000600190505b80156110b357600090506000600190505b83518110156110ad578381815181101515610ff957fe5b9060200190602002015160400151846001830381518110151561101857fe5b906020019060200201516040015110156110a057836001820381518110151561103d57fe5b906020019060200201519250838181518110151561105757fe5b90602001906020020151846001830381518110151561107257fe5b9060200190602002018190525082848281518110151561108e57fe5b90602001906020020181905250600191505b8080600101915050610fe2565b50610fd1565b82935050505090565b50805460008255600502906000526020600020908101906110dd91906111a6565b50565b828054600181600116156101000203166002900490600052602060002090601f016020900481019282601f1061112157805160ff191683800117855561114f565b8280016001018555821561114f579182015b8281111561114e578251825591602001919060010190611133565b5b50905061115c9190611214565b5090565b60a06040519081016040528060608152602001600081526020016000815260200160008152602001600073ffffffffffffffffffffffffffffffffffffffff1681525090565b61121191905b8082111561120d57600080820160006111c59190611239565b6001820160009055600282016000905560038201600090556004820160006101000a81549073ffffffffffffffffffffffffffffffffffffffff0219169055506005016111ac565b5090565b90565b61123691905b8082111561123257600081600090555060010161121a565b5090565b90565b50805460018160011615610100020316600290046000825580601f1061125f575061127e565b601f01602090049060005260206000209081019061127d9190611214565b5b5056fea165627a7a7230582083b59c8970a3c4dff9bb8ad28e9d9e133980c7d581944d3ba9f718892e8866400029",
  "source": "pragma solidity >=0.4.25 <0.6.0;\n// This is just a simple example of a coin-like contract.\n// It is not standards compatible and cannot be expected to talk to other\n// coin/token contracts. If you want to create a standards-compliant\n// token, see: https://github.com/ConsenSys/Tokens. Cheers!\n\ncontract EthTop {\n\taddress owner;\n\tuint amount; // деньги на контракте\n\n\t// описывает один пост\n\tstruct Post {\n\t\tstring text; // содержание поста\n\t\tuint id; //  уникальный id ( тупо индекс будет )\n\t\tuint price; // сколько бабок заплачено - по нему сортируем\n\t\tuint timestamp; // когда был создан пост\n\t\taddress author; // да\n\t}\n\n  // массив для хранения постов\n\tPost[] public posts;\n\n\tconstructor() public {\n\t\towner = msg.sender;\n\t\tamount = 0;\n\t}\n\n\t// событие создания поста\n\tevent PostCreated(string _text, uint indexed _id, uint _price, address indexed _author);\n\n\tfunction createPost(string memory _text) public payable returns (uint){\n\t\tuint id = posts.push(\n\t\t\tPost(\n\t\t\t\t_text,\n\t\t\t\t0,\n\t\t\t\tmsg.value,\n\t\t\t\tnow,\n\t\t\t\tmsg.sender\n\t\t\t)\n\t\t) - 1;\n\t\tposts[id].id = id;\n\t\tamount += msg.value;\n\t\temit PostCreated(_text, id, msg.value, msg.sender);\n\t\treturn id;\n\t}\n\n\tfunction sortByPrice() private view returns (Post[] memory) {\n\t\tPost[] memory sortedPosts = posts;\n\t\tPost memory tmpPost;\n\t\tbool flag = true;\n\t\twhile(flag) {\n\t\t\tflag = false;\n\t\t\tfor( uint i = 1; i < sortedPosts.length; i++ ) {\n\t\t\t\tif( sortedPosts[i-1].price < sortedPosts[i].price ) {\n\t\t\t\t\ttmpPost = sortedPosts[i-1];\n\t\t\t\t\tsortedPosts[i-1] = sortedPosts[i];\n\t\t\t\t\tsortedPosts[i] = tmpPost;\n\t\t\t\t\tflag = true;\n\t\t\t\t}\n\t\t\t}\n\t\t}\n\t\treturn sortedPosts;\n\t}\n\n\tfunction getTopTenIds() external view returns ( uint[] memory ) {\n\t\tPost[] memory sortedPosts = sortByPrice();\n\t\tuint size = sortedPosts.length < 10 ? sortedPosts.length : 10;\n\t\tuint[] memory topTen = new uint[] (size);\n\n\t\tfor( uint i = 0; i < size; i++) {\n\t\t\tif( i < sortedPosts.length ) {\n\t\t\t\ttopTen[i] = sortedPosts[i].id;\n\t\t\t}\n\t\t}\n\t\treturn topTen;\n\t}\n\n\tfunction getAllPosts()\n\t\texternal\n\t\tview\n\t\treturns(/*string[] memory, */uint[] memory, uint[] memory, uint[] memory, address[] memory)\n\t{\n\t\tuint size = posts.length;\n\t\tstring[] memory texts = new string[](size);\n\t\tuint[] memory ids = new uint[](size);\n\t\tuint[] memory prices = new uint[](size);\n\t\tuint[] memory timestamps = new uint[](size);\n\t\taddress[] memory authors = new address[](size);\n\n\t\tfor( uint i = 0; i < size; i++ ) {\n\t\t\ttexts[i] = posts[i].text;\n\t\t\tids[i] = posts[i].id;\n\t\t\tprices[i] = posts[i].price;\n\t\t\ttimestamps[i] = posts[i].timestamp;\n\t\t\tauthors[i] = posts[i].author;\n\t\t}\n\n\t\treturn (/*texts, */ids, prices, timestamps, authors);\n\t}\n\n\tfunction getAmount() public view returns (uint) {\n\t\treturn amount;\n\t}\n\n\tfunction widthdraw() public {\n\t\trequire(msg.sender == owner, \"Only owner can withdraw money from the contract\");\n\t\tmsg.sender.transfer(amount);\n\t}\n\n\tfunction widthdraw(address payable myFriend) public {\n\t\trequire(msg.sender == owner, \"Only owner can withdraw money from the contract\");\n\t\tmyFriend.transfer(amount);\n\t}\n\n\tfunction deletePosts() public {\n\t\tdelete posts;\n\t}\n}\n",
  "sourcePath": "/Users/pavelbelakov/Documents/GitHub/eth4top/smart-contract/contracts/EthTop.sol",
  "compiler": {
    "name": "solc",
    "version": "0.5.0+commit.1d4f565a.Emscripten.clang"
  },
  "schemaVersion": "3.0.2",
  "updatedAt": "2019-07-20T19:00:41.046Z",
  "devdoc": {
    "methods": {}
  },
  "userdoc": {
    "methods": {}
  }
}